:100000000C94E8100C942B110C9410110C94DA221F
:100010000C94FE220C9422230C9410110C941011B9
:100020000C9410110C9410110C9410110C941011CC
:100030000C9410110C9410110C9410110C941011BC
:100040000C948D240C9410110C94D1270C9403283B
:100050000C9410110C9410110C9410110C9410119C
:100060000C9410110C94101154562D522D476F6E94
:100070006521004E756D50616972733A20004672B9
:1000800065713A2000436F646520233A20004E7565
:100090006D436F6465733A2000455520636F646556
:1000A000732E00555320636F6465732E0054562DD4
:1000B000422D474F4E4521005368757474696E6731
:1000C00020646F776E2E2E2E004865617274206258
:1000D0006561742E2E2E00536E6F72696E672E2E20
:1000E0002E004D6F727365206F7574707574206F7C
:1000F0006620636F6465732E2E2E0055534220696F
:10010000732072656164792E004848565345524900
:10011000414C2D0068747470733A2F2F64636461CE
:10012000726B2E6E65742F202053656E6420746888
:100130006520666F6C6C6F77696E6720636F6465AE
:10014000733A004E756D626572206F66206D65733F
:1001500073616765733A20004572726F7220726531
:100160006164696E672030622066726F6D207278FC
:100170004275662E004572726F7220726561646905
:100180006E67203062003061003079004572726F16
:10019000722072656164696E672030782066726FC4
:1001A0006D2072784275662E003062004572726F63
:1001B000722072656164696E672030612066726FBB
:1001C0006D207278427566004572726F722072659A
:1001D0006164696E67203061004572726F722072CF
:1001E000656164696E672030792066726F6D207278
:1001F000784275662E006E756D4D736773206E6F55
:10020000742076616C69642E2053657474696E671E
:1002100020746F20302E2054686973206973206E1B
:100220006F726D616C2069662074686973206973F0
:1002300020796F75722066697273742070616972BB
:10024000696E672E00444B4E2D003078002511F664
:1002500010D8100520971064102F100B10F50F23E5
:100260001F471FDF0FC50F980F4C1C4A0F2A0F0D99
:100270000FF70ECD0EAD0E970E810E1E1C6B0E3CB1
:100280000E230E0D0EDE0DA50D8F0D6B0D4D0D32D7
:100290000D1C0D060DED0CD70CBA0C8B0C650C4F1C
:1002A0000C3F0C290C0F0CF40BDC0BC60B980B6BE2
:1002B0000B3C0B1F0B140BEF0AD90AC50AAF0A9BA4
:1002C0000A7B0A6B0A5B0A450A130AE409CE09B8DD
:1002D000098909700963094A09310926091509FCC8
:1002E00008DF08CC08B2087D0848081D08E807C4E4
:1002F00007A7077D075907400727071107EB06CC1B
:1003000006AF0699067306680639062E061006DB48
:1003100005CD05B405A7058A0571055B051D05F921
:1003200004E004C3048E04630435042804150405A2
:1003300020E11FA01F791F471F231FEE1EC61E911D
:100340001E631E3F1E0D1EDE1DAD1D971D811D650A
:100350001D371DE91CA81C761C4C1C1E1CFC1BD741
:100360001BA81B801B6C1B4C1B281B121BEE1AD8D6
:100370001A971A811A641A4A1A341A1E1A0E1AF98E
:1003800019DB19AD199019621934190819F218DC22
:1003900018CA18A71891187B185C184E183018172F
:1003A00018FC17DA17C417AE17981782176C17586E
:1003B000171F17FF16E916CC16B616961685166F78
:1003C00016591643161416FE15EE15D215BC15AEA9
:1003D000158D15651555151415E814A714791463B2
:1003E000144D1426140214DA13A51395136B135528
:1003F000133F1329131313F312DD12AE1298128256
:10040000126C12561240122A12FC11E611D011BAC7
:100410001185115711071F03F10D1C040492492681
:100420003471449AD1C51248FF0E03FC0A2F0446CA
:100430008023340080CF28034B043C04800200005A
:1004400002000492000000492A974837003700371D
:1004500000A70037009F1337002225C001BD01C24D
:1004600001BC01FF150372046A0422801A180110EE
:10047000C002310034003100FA003100FC003100CC
:1004800049093100E92E6400340064006600CF445D
:1004900003AF0495046410000410000080000412EF
:1004A000492A1040001040000200001049249038F2
:1004B0000037003800A8003800F212BF01C501C0A3
:1004C00001C501CF1602D004CA0419955E665550C5
:1004D0001800B9001B004E001B00B7001B000606E9
:1004E000CF1802ED04E7044554164554150E00EBF1
:1004F000010E00E7020E000E12EF180309050005B9
:100500006208A08A190408408310004F0310000CF1
:100510001711002F0211004E0311004F03CF3B03B0
:100520003B0524050B12492492498D1C8927FCABFD
:10053000472249FF2AD1C8927FC9003000F6003215
:10054000002F0032005E003200F5003200D005328C
:1005500000DA2A64002F0064005E00CE2603791EB4
:1005600062058410002090010080400412092ABA1C
:1005700040CF18027E0578054440024440010E0039
:10058000EB010E00E7020E00F916E718029705913D
:1005900005299A9BA99A9A2C002F032D0010022D51
:1005A000002F032D008813CF18024D07AE054554C8
:1005B00002455401CF1802C105BB055550065550E0
:1005C000050E00EB010E00E7020E004212001B02B6
:1005D0001E06D405800400B8554008DF2E03F4053C
:1005E000E205468000000003445200000C222290E5
:1005F000000060802E0035002E006A002E000401ED
:100600002E00DE052E00D22A5D0035005D006A0056
:10061000001B021E061706800100B85510080300D3
:1006200008000300120003001C000300BB31E710A8
:1006300002FF0B350619AB59A9CF1E034C06400625
:1006400004944B24953524A25924A8400D0060023F
:100650000E008D000E0028010E00C3010E005E0288
:100660000E0060020E003F18E71002FF0B6F062A13
:10067000AB6AAA001D0385067A066080880000E345
:1006800004044000060300080003001200030018E1
:1006900000030026000300F126DF0B02A306A006DC
:1006A000159A9457007F025800130158007F02C723
:1006B0001602BC06B60648800E220010300032003A
:1006C000300094003000950030009005CF1E02DB12
:1006D00006D3068001002E000400A00F008A000F40
:1006E00000BE010F005D020F00A519001D03FD06ED
:1006F000F2066000880002E30004400016030009CF
:10070000000300130003001D00030027000300F096
:1007100026CF2603621C180784104008820801C2F5
:1007200008200441040040CF180234072E07455426
:10073000424554410E00EB010E00E7020E000A1381
:10074000CF18024D0747075550025550010E00EBD8
:10075000010E00E7020E000614EF18036907600798
:1007600045865B05C65B05B0421000530311002AA5
:100770000211005203110053031100EF12CF2603A0
:100780009307840784824008924801C241200449AB
:10079000240040300034003000A0003000900130D0
:1007A0000048081F039001CF1802B407AE076AA0E3
:1007B00003AAA0011000E4011000E2021000E3020D
:1007C0001000BB12EF1803D407CB070E3821822686
:1007D0002082482310002F0210004F0310000C1736
:1007E00011002F0211004F03C744030908EF0760EF
:1007F00082082410410482400010092A0208209037
:10080000410412090000402480330038003300A264
:100810000033001A0B5003AE015203AD01CF50025A
:10082000380824081A5A65679A659A9B9A5A656728
:100830009A659A9B9A5A65651A00B9001B00500088
:100840001B00B9001B009910CF440369084F0860D2
:1008500000002010090402010090482A00000080D6
:10086000402410080402412080370039003700A7D7
:1008700000370040117F03C0018103BF01CF440353
:100880009E0884086000002480090492000000494A
:100890002A00000092002412480000012480350044
:1008A0003B003500AA00350007117C03C0017D0321
:1008B000C001000C02BC08B908900D0006009D03A1
:1008C00006003B05060032080600E30A071F03F195
:1008D0000DD308049249263251C89AC9472248CFFD
:1008E0001802EC08E6082A9A9BAA9A9A0E004B0373
:1008F00010002B021000490310002F1300170209EB
:10090000090309054546054544060036020600531D
:100910000306006215DF1A03FE1A1C090492492817
:10092000C64924925180E71002FF0B2D091957592F
:10093000550017023E0938095545465545440500FE
:1009400038020500560305008713CF1802570951D6
:10095000094544564544550E00EB010E00E7020ED2
:100960000046110017027D096A0914540614540444
:100970000017027D0977090554060554040400F3A5
:10098000010400EE0204008713CE1F039C099009A6
:10099000049249263449389AD124E24831000701AB
:1009A0003200360032006C00320007013200ED07E1
:1009B0003200D72764006E00CF0C02C209BF094184
:1009C00024125E00D9015E00D80266006506CF28B9
:1009D00003AE0BD50984820004820000820004105B
:1009E000492A8741071F03F709EB09049249263278
:1009F0004A389AC928E2482F000B013200370032EA
:100A0000006E0032000901320007083200552F64E1
:100A1000007000061D03250A1A0A04924926325165
:100A2000CBD64A39722F000B013200370032006EEC
:100A30000032000901320007083200552F640039E6
:100A40000064007000CF2603791E4C0A8000002449
:100A500090410082000410492ABA00CF22028B0A7A
:100A6000620A25999A5AE9666696A0DF1803331F31
:100A7000720A10925424B309254248CF22028B0AED
:100A8000820A25599A5AE9566696A032009E003588
:100A900000330035009C0035008408BF0402A30A1F
:100AA000A20A2636016502360166026E027820CF60
:100AB0002603791EB60A8000002410490082000433
:100AC00010492ABA00CF0402CD0ACC0A2670006B66
:100AD0000071006B00A502CE0ACF2603791EE00A42
:100AE0008000002092490002400490092ABA00FFC9
:100AF0000E03FC0AF60A401A2300D08031003500AC
:100B000031006800310006013100080131005E1F2C
:100B100064006700E71002FF0B1B0B26AB66AAFF01
:100B200018022C0B260B1A9A9B9A9A9910004603CE
:100B300011002E02110047031100B818CF340357DB
:100B40000B430B6082002080410490412A02080080
:100B500082010412410480540058005400050154DD
:100B600000200D5B015B015B015C01EF3003840B36
:100B7000720B6000000012492492428000000012B3
:100B8000492492405B0058005B000B015B00250E7E
:100B90006901660169016701CF2803AE0B9F0B80D5
:100BA00092000092000010400482092A9748370002
:100BB00037003700A7003700E11137002225C001B8
:100BC000BD01C201BC01CF2603791ECD0B80000000
:100BD0002482490480400012092ABA00001102E868
:100BE0000BE30B41241241000300F0010300E90272
:100BF0000300D005E61002FF0BFB0B16AB56A90F46
:100C000000ED011000ED011000BA0210008605BFD2
:100C10000A02190C160C16E5909800D7019A009C50
:100C2000009A00D5019A00830BCF26035D1F300C7C
:100C3000A002010490482000000492492B3D00BF0F
:100C40000202470C460C100D04781010040000CF6F
:100C50002603791E560C80000024920900820004AD
:100C600010492ABA00EF1C03770C6C0C0CB2CA496D
:100C7000130B2CB29244B02E002C0131002A01310A
:100C80000088023100E5033100F00BDF3403A60CCD
:100C9000920C6090402080402090412A02410082C6
:100CA000010082410480550059005500080155009B
:100CB0004A0D5B015E015C015E01C61802C70CC1F2
:100CC0000C6A8283AA82810D00BD010D00A2020D73
:100CD00000A3020D00E711000B02E10CDE0C056021
:100CE000540300EA030300D7050300F30BCF1802F7
:100CF000FA0CF40C4550024550010E00EB010E00B9
:100D0000E7020E003A14CF26035D1F0D0DA4004923
:100D10000092002002000490492B3D00CF26035D85
:100D20001F230DA002400490092002000490492BCB
:100D30003D00CF0E023D0D390D2A5DA960300096B1
:100D4000003200950032005B013200780BEF1A028E
:100D50005B0D540D1A56A5D695A9403100CD003132
:100D600000CE003100C80131006A0ECF34027F0D81
:100D7000720DD5501511655405445955015115355D
:100D80000035003500A0003500A1064603A601CFBE
:100D900026035D1F960DA010000482492002000466
:100DA00090492B3D00E72E03BE0DAC0D470000001F
:100DB0000004646200E0002B231007000080320072
:100DC0003200320063003200FB003200FC003200CF
:100DD000A5053200062B6600310066006200071F81
:100DE00003F10DE50D049249263472249AD1C8927C
:100DF000482F000B013200370032006E003200092C
:100E000001320007083200552F64003900CF260355
:100E10005D1F140EA0820824104104100120824896
:100E20000B3D00CF1802300E2A0E5540425540416E
:100E30000E00EB010E00E7020E003E13FF15034B00
:100E40000E430E4700233C0159E0043100340031C9
:100E50000066003100FA003100FC00310049093120
:100E600000E92E6400340064006600CF26035D1F95
:100E7000720EA002480490012000400492092B3D0C
:100E800000CF26035D1F880EA48041001208249025
:100E9000400002092B3D00CF2603791E9E0E848060
:100EA000002082490002000490492ABA40DF220251
:100EB000BD0EB40E22200001C88800004030002D75
:100EC0000130008B023000E9033000B90BCF26035C
:100ED000E30ED40E80800008124001C040000409D7
:100EE0002000003200360032009E003200A20132A3
:100EF000008B094B03A201CF26035D1FFE0EA0024B
:100F0000480490012012400480092B3D00EF180294
:100F10001A0F140F1A9A9B9A9A990F004C031000FB
:100F20002D0210004C0310006814EF22023A0F311A
:100F30000F68082000EA020800101C005C001C007A
:100F4000D5001C00D6001C00D30ACF8803840F51A3
:100F50000F6082082410410012400480092A020810
:100F600020904104004900120024A8082082410476
:100F700010012400480092A020820904104004902F
:100F8000012002483500360035009C003500EE098E
:100F90005303A9015503A801CF5802B50F9F0FD4E1
:100FA00055000040155400015556D4550000401519
:100FB000540001555535003B003500AB003500FEAF
:100FC000087F03C101EE1A02D30FCC0F0501518136
:100FD0004054402E00CE002E00CB012E00770DCFC6
:100FE0002603791EE60F84004804020104800900EC
:100FF00012402ABA40CF26035D1FFC0FA000410417
:1010000092082490400002092B3D00CF34021F10AB
:101010001210D40015102500054409400151013279
:1010200000360032009F00320003094603A601CFBC
:101030004403501036108490000490000080000497
:1010400012492A124000124000020000104924B048
:1010500035003F003500AC00350078113600000047
:10106000C701D401CE400383106B10049252289222
:101070008C44928945245344925228928C449289FC
:101080004524511800BE00190050001900BE001977
:101090000067101900BF12D76403C4109E1060804F
:1010A000000000080000002000000412480412485C
:1010B0002A020000000020000000800000104920EB
:1010C000104920802C002D002C0083002C00261DB0
:1010D0005A01B0005A01B200EF1A02E610DF101AEE
:1010E00056A6D695A9902B00CE002E00CC002E003F
:1010F000C8012E00A00D071F030911FD100492491D
:10110000263589249AD62492482F000901330036C7
:101110000033006C00330007013300050833007F03
:101120002D64006D00DF28033B112C11A408000082
:101130000000642C408000000006412B002F002B93
:10114000005B002B00842058002F008500850008DC
:10115000015A0008015B00C726036D115E1184105F
:101160004008820801D2082004410400402C0032CB
:10117000002C0093002C00BF012C00BC0817038E2C
:101180000119038D01C74403A6118C1160000020D2
:1011900002090402010090482A000000800824107F
:1011A000080402412080380036003800A6003800CC
:1011B000690F8003BA018003BB01CF26035D1FC105
:1011C00011A400000092492400000092492B3D0028
:1011D000C726037819D71184924920000004920091
:1011E0000000492ABA40C626034D1DED11A4800017
:1011F0002012490002000490492A3840C7260312F1
:10120000120312A000082492410082000410492E0B
:1012100028003A003D003A00D3003A006E2549000C
:1012200044107303D3001A04EE01CF28034A193186
:10123000128090400090400492000000492A974894
:10124000CF28034A194712800000000000049200D2
:101250000000492A9748C7260378195D12800200CA
:101260000490492492000000492ABA00C726034D81
:101270001D7312A480002012490492492000000A24
:101280003840C726034D1D8912A400490092002052
:1012900002000490492A3840CF28034A199F12803F
:1012A00002000002000492000000492A9748C73457
:1012B00003C912B5126402080002090412490A1097
:1012C0000820000824104924105600570056000238
:1012D0000156000A0D5A015C015C015B01CF260337
:1012E0005D1FE412A000090492402000000492490E
:1012F0002B3D00DE22020313FA1229596555EA56E6
:101300005955702B00AB002D003C002D00AA003673
:1013100000FD08CF2603791E1A138000000412482E
:101320002400000092492ABA00CF26035D1F301323
:10133000A000000492492400410092082B3D00CFF8
:101340002603791E46138480002410410080012466
:1013500012480ABA40CF2603791E5C1380804004ED
:1013600092492092000400492ABA00CF2803811331
:1013700072138002000002000482000010492A1744
:101380000838003A003800AE003800C5113800E8CF
:1013900024B801BE01DF1603331F9C131094623181
:1013A000984A311800CF4403C613AC136090002054
:1013B00080000402010090482A02400082000010D0
:1013C000080402412080370039003700A7003700A9
:1013D00030117F03C0018103BF01CF4402F213E14A
:1013E00013D1001100040011556D100110004001CF
:1013F0001555360038003600AA0036003F13C301E9
:10140000BF0187340216140914D541514014042D2C
:10141000541514014041300064003000C800300011
:101420001A0490019001DF140335142D1410AB1130
:101430008CC2AC460058005A0058005B005800B5FA
:101440000058001023B1005B00B100B500CF2603A7
:101450005D1F5414A002000490492080400412092A
:101460002B3D00CE2603791E6A148000400412082A
:101470000492400000092ABA00CF26038F1480147A
:10148000A002400490092002000490492A38003844
:101490000045003800AE0038004510380071257056
:1014A00003DE007003B301D66403D414AE1460826B
:1014B00008208241049200208040009040040041B6
:1014C0002A02082082090412480082010002410019
:1014D000100104802A002E002A007E002A004D1BE5
:1014E0005B01B0005B01B100CF2C030015EF146469
:1014F00000000000400080A100000000100020104B
:1015000037003C003700A5003700EC08BD01B501ED
:10151000C001B401D7640341151B156080000000B1
:10152000080000402000000412480412082A0200AB
:101530000000002000010080000010492010482019
:101540008029002B00290080002900341D5001ABA8
:10155000005201A900DF1803FE1A5C1510924946DB
:101560003309249460DF180375156C150A12492A93
:10157000B2A12492A85800590058005A005800B34C
:10158000005800B822B1005A00B100B300C72802C9
:101590009E15941518461868471846186844300078
:1015A0003400300099013000F8013000FA26001BA9
:1015B000023E18B515815040B8150408C726034DE2
:1015C0001DC315A082082410410490082002410A7E
:1015D0003800CF2202E215D9158045040114100409
:1015E000504028001301A0009A00E0019B00DF1684
:1015F00003FE1AF51510A262319851311800C72662
:10160000034D1D0516A092090400402010400482DD
:10161000092A3800BF34032F161B1660000104107E
:10162000492482082A000004104124920820A03393
:101630000062003300C2006600A3038601860186B3
:10164000018701C726034D1D4A16A40041009208D8
:101650002002000490492A3840C726034D1D601619
:10166000A082082410410000002492490A3800C7D3
:101670002603C3197616A0900000900000104004C5
:1016800082092A38008F08028E168C161140250018
:10169000B50025001001CF2102A6169D16400208B4
:1016A000A2E0008228401B004C001B00B6001B007B
:1016B000B7001B007F0CC726034D1DBD16A0000000
:1016C0000492492482000010492A3800C71802D920
:1016D00016D3168C300DCC300C2B0079002B00DD8E
:1016E0002482002D0083002D00C726037819F016F0
:1016F0008002492490000080000412492ABA00CFD9
:1017000021020F170617C0450201140804500026D5
:10171000001401A5009A009F019B00E6029A008632
:101720004E034417261784920124120004800809EE
:1017300092480490480012002026492012412000BF
:1017400048008080300062003000C50062004E0317
:101750008B018801A10788018B3402F51F5F17C038
:1017600001515554042C001515554040C726034D12
:101770001D7317A492492000000492480000012A1A
:101780003840C726034D1D8917A002080490412444
:1017900082000010492A3800C726034D1D9F17A05C
:1017A00000082492410482000010492A3800C7260C
:1017B000034D1DB517A0000804924124004000927B
:1017C000092A3800C726034D1DCB17A41209008033
:1017D000402010400482092A3840EF1203E817E144
:1017E000178DA4080404924C160065001600DB0057
:1017F000170065001700DB001F00DA00C70E0207A4
:101800001803182A5DA9602D0094002E0094002E64
:10181000005F012E00DD0AD6080220181E182A5784
:101820003700C1003900C000390080013A000000D3
:10183000001B023E183718815114B81511440300DB
:101840000A000300140003001E000300EA318F1C8D
:10185000026B185518222015722201548F1E026B3C
:101860001863182221401C888500403300E80033AB
:10187000000002330018033300430BC726034D1D3D
:101880008218A490480002012080400412092A38DE
:1018900040C726034D1D9818A0100124824800025D
:1018A000400490092A38008F3002BA18AE18C000E0
:1018B00001555552C0000155555050005800500078
:1018C000FE005000A60E67014B01AF0B02D418D1E9
:1018D00018141140120156031201C207C7260378DB
:1018E00019E3188000000492492492000000492A5C
:1018F000BA00C726034D1DF918A000400492092420
:1019000092092000400A38000F170318190F190B0D
:10191000126344926B449250330015013400350039
:1019200034006900340015013400DF093400093245
:1019300067003600CF28034A193B198090000090B9
:10194000000492000000492A97483A0035003A0006
:10195000A7003A008E113A00CF25C701C101C80186
:10196000C101C72603781969198490000002492033
:1019700080000412492ABA40330033003300A0002B
:101980003300001033002925AF01B4017303DB00DD
:10199000C718029D1997191575565575542B00785F
:1019A000002B0079002B00A30D83002D00C7260318
:1019B000C319B419A4800020824900020004904990
:1019C0002A3840360041003600AA0036000310369F
:1019D00000DC218303E2008303A501671A02E919F1
:1019E000E219E22080788820003A003E003A00BAEE
:1019F0000A75003E00F2003E00C70802021A001AF3
:101A00000604710065007100C9007100930AC704E3
:101A100002161A151A1171006500B002930AC72642
:101A2000034D1D251AA41040008209208040041295
:101A3000092A3840BF0B023E1A3B1A804500270096
:101A40000701A400A3000202A400D70B02541A51FC
:101A50001A159A9C520045025400FA0054004402A0
:101A600055000000BF1602711A6B1A16665D59996F
:101A70005060005D0061005D0061001F0161006752
:101A80000DCF26035D1F881AA000410492082492FE
:101A9000480000012B3D00CF6403C41A9E1A601059
:101AA0004004800900000000100020820020000097
:101AB0000A004100120024000000004000820800DB
:101AC0008000000028002B0028007A002800B114B4
:101AD0004E019C0050019B00CF2603791EDF1A8027
:101AE00000410412082080000412492ABA00DE18BE
:101AF00003FE1AF51A061249463261249460580012
:101B0000590058005A005800B30058001123B10082
:101B10005A00CF2603791E191B80004104120820A9
:101B200000000492492ABA00DE1603381B2F1B0C52
:101B3000925346164929A2C058005A0058005B002B
:101B40005800B500B1005B00B1001023CE24025C48
:101B50001B531BC44514046C445140447600790067
:101B600076000F0176008E1202010F018B3402F510
:101B70001F731BC541111014446C541111014444CE
:101B8000CB2203941B871B09945365329985328AB3
:101B90006CA65320310031003100320031009A012F
:101BA0003100FE0131002631CF3403C31BAF1B646B
:101BB00092490000000002492A1249240000000056
:101BC00009249054005A005400080154008E0D5A04
:101BD000015E015B015E01CF1A03E81BDE1B692475
:101BE00010400312482080003A003C003A00090AE5
:101BF00076003C00ED003C00EE003C00C72C020EDD
:101C00001C031CA11861A1187A11861A11863000D4
:101C10003400300099013000F8013000DD28CF2673
:101C200003341C251C800240000240000001249265
:101C3000480ABA0035003C003500AF0035006F118E
:101C40003500ED247C03C2017F03E100CF2603624F
:101C50001C531C80104008820801C0082004410465
:101C60000000300034003000A0003000900130004F
:101C70001F091F039001CF26038C1C7D1CA01000A0
:101C80000482492002000490492B3D003C003700AB
:101C90003C00A3003C0003103C00E2253D00000096
:101CA0008203CD018403E600CF6403D51CAF1C6022
:101CB0001040048009000000001000201000208067
:101CC000000A004100120024000000004000804093
:101CD000008200000028002A0028007C002800F96B
:101CE000114501A3004601A300CF8803231DF01C6A
:101CF0006082082410410012400480092A02082052
:101D0000904104004900120024A8082082410410D8
:101D1000012400480092A020820904104004900190
:101D2000200248330037003300A1003300060A5177
:101D300003AD015103AE01C726034D1D3E1DA00298
:101D4000480490012080400412092A3800380039E4
:101D5000003800AF003800361038001B258203E33E
:101D6000008203C101E72202751D6C1D540410009E
:101D700095010400101C005A001C00D3001C00CB6D
:101D800009CF26035D1F881DA0800104124824008E
:101D9000000092492B3D00CF26035D1F9E1DA00031
:101DA000090492402480000012492B3D00CF3003EB
:101DB000C61DB41D80124004000900124124820196
:101DC00000104824AAE8350037003500A700350088
:101DD0000009350099247D03C0017F03BF01CF3482
:101DE00003F91DE51D6412082400082010092A10BB
:101DF000482090002080402490510057005100FE60
:101E0000005100D00C4B0150014B015101CF260372
:101E1000231E141EA00041049208249040000209D1
:101E20002B3D00370037003700AC003700C70F37B5
:101E3000008424380000007403BA017503E100CF68
:101E40003402531E461ED4001510250005440940D7
:101E50000151013300370033009E003300EE084982
:101E600003A301CF2603791E6A1E849000208008F8
:101E70000000092492400ABA40350038003500AB12
:101E80000035006E0F35007F258203C3018403E215
:101E900000CF4403B21E981E6400490092002082C5
:101EA000010410482A10012402480082080410414D
:101EB000209038003A003800AA003800AB0F8203A7
:101EC000C2018403C101CB2203DA1ECD1E09945343
:101ED0002994D985328A65329B2031003100310046
:101EE000320031009A013100FE0131004B2FCF4406
:101EF000030F1FF51E649000049000008000041280
:101F0000492A124000124000020000104924903279
:101F1000003E003200AC003200BD11C001D201C24F
:101F200001D101DF1803331F2A1F109249463309DC
:101F300024946058005A0058005B005800B50058BF
:101F4000001023B1005B00CE26035D1F4E1FA000D2
:101F5000010492482080400412092B3D00370039CB
:101F6000003700AA0037006D0F37009725380000B2
:101F7000008203C5018403E200CE4002901F801F4F
:101F8000155A656795659A9B955A656795659A99FF
:101F90001A00B9001B0050001B00B9001B00C5113E
:101FA000D76403CD1FA71F60800000000800000059
:101FB0002000000412480412482A020000000020F9
:101FC000000000800000104920104920802A002EC7
:101FD000002A0085002A005F1D5B01B0005B01B193
:101FE000008B3402F51FE81FD541110014446D54D5
:101FF0001110014445320064003200C80032002054
:102000000390019001CF1A0213200C20E220807867
:102010008820103C003C003C008C0A78003C00F01A
:10202000003C0005181A0C02120E1004170D1407BC
:10203000060F161D0A080309110B191B1C015A056E
:10204000010906A101050719E029E7150025017519
:102050000195088102950375082565190029658198
:1020600000C000C201000100110011000C0000E1DD
:1020700000000A002500250021000096000019003C
:10208000390039003600127A00001F004600460071
:1020900044008070000022004D004D004A00004BBB
:1020A00000003600750075007200403800004A00DC
:1020B0009C009C009900802500007200EC00EC0060
:1020C000E900C0120000E900DA01DA01D701600975
:1020D0000000D701B603B603B303B0040000B30396
:1020E0006E076E076B072C010000DC0EC11DC11DC1
:1020F000BE1D090222000101008032090400000116
:1021000003000000092101010001222300070581CD
:102110000308000A1201100100000008C016DB27A6
:10212000000E01020001300344004300440061003E
:1021300072006B004E0065007400200049004400EE
:10214000200042006100640067006500200032004A
:102150003000310034001603640063006400610045
:1021600072006B002E006E00650074000403090409
:102170000000000800020100000304070000000046
:102180000000000001020408102040800102040841
:1021900010200102040810200404040404040404B0
:1021A0000202020202020303030303030000000011
:1021B00023002600290000000000250028002B0035
:1021C00000000000240027002A00291833283A18AC
:1021D00011241FBECFEFD8E0DEBFCDBF12E0A0E0DC
:1021E000B1E0EAE5F9E502C005900D92A631B1072C
:1021F000D9F723E0A6E1B2E001C01D92A839B207E9
:10220000E1F711E2CEECD1E204C02297FE010E9478
:10221000EB2ACA3CD107C9F70E94522A0C94A02C81
:102220000C940000A82FB92F80E090E041E050EA24
:10223000609530E009C02D9182279795879510F021
:1022400084279527305EC8F36F5FA8F30895EADF0F
:102250008D939D930895CF93CFB7CF93DF93C3957D
:102260004C9BE9F74C9B0BC04C9B09C04C9B07C097
:102270004C9B05C04C9B03C04C9B01C08BC06F9313
:10228000C0917703DD27C258DC4F2F9365E54C9B47
:1022900003C02F916F91E6CF0F931F934F9320E0D0
:1022A00040E15F9309B1047104FB27F93F9350E0CB
:1022B0003BE039C0147140642F77012F5F5F1EC06F
:1022C000406819B114712F7752501FC0406409B192
:1022D0002F770471D1F15F5F00C023C0406219B154
:1022E0002F77147191F15F5F00C025C00471102732
:1022F000515012F45D5F0000115027952C3F19B129
:10230000C8F614710127015027952C3FC8F64227C3
:10231000499309B1047110274F73115027952C3F31
:10232000A8F64695469519B1147179F00127015028
:1023300027952C3F98F66B5A60F3315009B1B0F6EF
:1023400000C011E01CBB002719C03B503195C31BD6
:10235000D04011E01CBB0881033C09F10B34F9F0BB
:10236000209175031981110F1213EDCF4A81441F7B
:10237000093651F10D3211F0013E29F700937C032B
:102380003F915F914F911F910F912F916F91CCB31E
:10239000C0FD65CFDF91CF91CFBFCF911895209130
:1023A0007C03222369F310917A03112391F53430D1
:1023B00092F130937A0320937603109177033BE0F8
:1023C000311B3093770327C000917A0301300CF55D
:1023D0000AE54F7049F430910B0134FD1DC00093A4
:1023E0000B01CEE5D3E01CC03091690334FD14C06D
:1023F00000936903CAE6D3E013C0052710E000C0CC
:1024000000000BB91AC0052710E0221F1DC010E004
:1024100021C04AE502C032ED432FC4E1D0E032E0F2
:102420001AB114615C9A0BB11AB954E120E865E362
:1024300020FF05270BB9279517951C3FF0F66695E9
:10244000B8F7B1F720FF05270BB9279517951C3F63
:10245000D0F62795179517FF052700001C3F0BB9ED
:10246000B0F629913A9519F70B7E10917B03110F65
:10247000C651D0400BB911F01093750311E01CBB8D
:1024800000611AB11B7E402F4B7E54E05A95F1F744
:102490000BB91AB94BB974CFCF93DF93EC011BB8CA
:1024A0008AB18B6E8AB9F89457985F98579A5F9A59
:1024B0000E9480247894188219821A821B8264E018
:1024C000CE01DF91CF910C944D23CF93DF93EC019C
:1024D0008091690384FFFCCF188219821A821B82C3
:1024E0004883698364E0CE010E944D238091690393
:1024F00084FFFCCF188219821A821B8264E0CE010D
:10250000DF91CF910C944D2340E00C946512FC01B7
:1025100080818076803231F481818A3019F4838120
:102520008093710280E00895CF92DF92EF92FF9244
:102530000E94D724C0903E02D0903F02E09040021B
:10254000F09041026C157D058E059F05B0F16CE0A1
:1025500071E081EC92E00E94D9280E94D7246B019F
:102560007C0120E737E140E050E060EA7FE080E076
:1025700090E00E94352A6C0D7D1D8E1D9F1D60937D
:102580003E0270933F0280934002909341026AE4BE
:1025900072E083E592E00E94B42862E472E083E591
:1025A00092E00E9408296EE971E081EC92E0FF90D0
:1025B000EF90DF90CF900C940829FF90EF90DF9080
:1025C000CF900895CF92DF92EF92FF920F931F93D7
:1025D000CF93DF93DC016D917C91119712964D9111
:1025E0005C911397E0904B02F0904C0200914D02E9
:1025F00010914E02C0914F02D09150028091510231
:1026000090915202E0E0F0E0E95CF1469A012295F7
:102610003295307F3227207F32272E0D3F1D6A01F1
:10262000689414F8D694C7941694E1F7C00ED11E9E
:102630002C253D256A01CE0EDF1E2C253D25620F7F
:10264000731F9B0122953295307F3227207F3227DE
:102650002C0F3D1F6B01689414F8D694C794169400
:10266000E1F7C80ED91E2C253D256B01CE0EDF1ECD
:102670002C253D25420F531FE03E26ECF20721F6A4
:1026800011967C936E9313965C934E931297DF9101
:10269000CF911F910F91FF90EF90DF90CF90089511
:1026A000CF936EEF73E086EB92E00E944623C82F33
:1026B0006FEF73E086EB92E00E9446232C2F30E010
:1026C000322F2227A901480F511DCA01CF91089529
:1026D000CF93C82F492F6EEF73E086EB92E00E94F4
:1026E00049234C2F6FEF73E086EB92E0CF910C946F
:1026F0004923FC018081282F30E02F5F3F4F2F714D
:1027000033272083089590911D02E82FF0E0E90F10
:10271000F11DEF71FF27E25EFD4F80810895DB011F
:1027200020E030E0F901F595E795E80FF91F4081C9
:1027300050E020FF02C0E0E001C0E4E002C0559597
:102740004795EA95E2F74F704F5B4D932F5F3F4FF0
:102750002830310539F7FB01108608954F925F92BA
:102760006F927F928F929F92AF92BF92CF92DF92A1
:10277000EF92FF920F931F93CF93DF93CDB7DEB706
:1027800029970FB6F894DEBF0FBECDBF782E692E05
:10279000CB01BE016F5F7F4F0E948F130E945013C9
:1027A0008C018C33910578F066EF71E081EC92E05A
:1027B0000E94B4284AE050E0B80181EC92E00E9407
:1027C000FB2900E010E0480154E0880C991C5A9560
:1027D000E1F7E12CF12CE814F904C8F4A72CB62C8D
:1027E000C12CD12C5C2CF50141905F01B6016E0D1E
:1027F0007F1D86EB92E00E944623481230C0FFEF17
:10280000CF1ADF0A88E0C816D10461F705C098E046
:10281000591611F00F5F1F4FA72CB62C6701FE0150
:1028200031964F013E01F9E06F0E711CF5014191A7
:102830005F01B60186EB92E00E944923F4014191C9
:102840004F01B601685F7F4F86EB92E00E944923FB
:10285000FFEFCF1ADF0A8614970441F704C080E126
:10286000E80EF11CB8CFC8010E946813C701299671
:102870000FB6F894DEBF0FBECDBFDF91CF911F9191
:102880000F91FF90EF90DF90CF90BF90AF909F900F
:102890008F907F906F905F904F900895CF93DF93CC
:1028A000CDB7DEB729970FB6F894DEBF0FBECDBF08
:1028B000BE016F5F7F4F0E948F13BE016F5F7F4F1E
:1028C00083E592E00E94082929960FB6F894DEBFAE
:1028D0000FBECDBFDF91CF910895CF92DF92EF92DF
:1028E000FF920F931F93CF93DF9300D0CDB7DEB746
:1028F0006C018B0180911D0290E00A9760E270E00C
:102900000E94752A8983E12CF12CD701B595A795F2
:10291000E981F0E0E25EFD4F20819FEB920F903164
:10292000E0F09FEA920F9A30C0F080ED820F8A307B
:1029300018F496ED920F11C062E171E081EC92E023
:102940002A830E94D9284AE050E02A81622F81EC34
:1029500092E00E94E42980E01CC0AC0DBD1D8C916A
:102960008295807F892B8C930115110529F0808138
:10297000F80180830F5F1F4FCE0101960E947913EB
:10298000FFEFEF1AFF0A88E0E816F10409F0BDCF67
:1029900081E00F900F90DF91CF911F910F91FF90E9
:1029A000EF90DF90CF9008951F93CF93DF938FEF39
:1029B0000E9483138A30C1F58EEF0E9483138D30FD
:1029C00099F584EF0E948313803371F585EF0E949F
:1029D0008313C82F88E88C0F823040F5C6EFDFEFF5
:1029E0008C2F0E948313182F8FEB810F8A3150F1A7
:1029F00080ED810F8A3030F161E371E081EC92E08B
:102A00000E94D9284AE050E0BE0181EC92E00E9489
:102A1000CF296DE371E081EC92E00E94D928612F0B
:102A200081EC92E00E941A2980E012C08FE98C0F9D
:102A30008230A0F26FE371E081EC92E00E94D9282D
:102A40006C2FEECF2196CE3F8FEFD80749F681E06D
:102A5000DF91CF911F910895EEE1F2E08DE2819335
:102A600092E0EE33F907D9F710921D020895CF9244
:102A7000DF92EF92FF926B017C0180E1C816D104D6
:102A8000E104F10494F06FE070E080E090E00E94D7
:102A900006250E9472238091690384FD0FC08FE098
:102AA000C81AD108E108F108E8CFC701B6010E94B1
:102AB0000625809169038295817001C081E0FF90B5
:102AC000EF90DF90CF900895CF93C82F8FE98C0FB0
:102AD0008A3120F463EA6C0F40E007C08FEB8C0F63
:102AE0008A3150F463EC6C0F42E080911B029091AC
:102AF0001C02CF910C9465128FEC8C0F893018F466
:102B00006DEE6C0F1CC0C03311F467E218C0CA33FD
:102B100019F442E063E3E9CFCF3211F468E30FC068
:102B2000CE3211F467E30BC0CD3211F46DE207C071
:102B3000C03211F46CE203C0CA3041F468E2809103
:102B40001B0290911C02CF910C9484126FE471E0EF
:102B500081EC92E00E94D9286C2F772767FD709551
:102B60004AE050E081EC92E00E94CF296DE371E0F1
:102B700081EC92E00E94D928E091C102F091C2025A
:102B80000190F081E02D6C2F81EC92E009956EE9C7
:102B900071E081EC92E0CF910C940829CF93DF9300
:102BA000EC018991882319F00E946415FACFDF9116
:102BB000CF9108950F931F93CF93DF938C018AE6F3
:102BC00091E00E94CE15C0E0D0E0BE01600F711F01
:102BD00086EB92E00E9446230E9464152196C03144
:102BE000D10599F78DE991E0DF91CF911F910F9178
:102BF0000C94CE150F931F93CF93DF9361E083E086
:102C00000E94CB2560E08BE00E94CB2560E08AE04B
:102C10000E94CB2560E086E00E94CB2560E085E045
:102C20000E94CB2584E090E00E94612AEC010E9482
:102C30004C12D0931C02C0931B0260E375E780E046
:102C400090E00E9437158823D9F16BEF70E081EC9A
:102C500092E00E94F62864E670E080E090E00E9436
:102C600006258FE691E00E94CE158FE991E00E9443
:102C7000CE1582E492E00E94CE158DE991E00E948B
:102C8000CE150E9450138C339105A0F48C0174E092
:102C9000000F111F7A95E1F7C0E0D0E0C017D1070F
:102CA00028F4CE010E94DA156096F8CF8DE991E004
:102CB0000E94CE1568EE73E080E090E00E94371528
:102CC00057985F9880911B0290911C020E94632A82
:102CD00060E083E0DF91CF911F910F910C94CB25A1
:102CE000CF93DF93D82F90911902E0911602F091C3
:102CF0001702C091180240E050E080E06D2F70E0B4
:102D0000615071094D17F8F4911106C09F012F5FB2
:102D10003F4FC491F90198E091502C2F30E0092EDB
:102D200002C0359527950A94E2F721703327DB011D
:102D3000A41BB50B0A2E01C0220F0A94EAF7822BBE
:102D40004F5F5F4FDFCF90931902F0931702E0932C
:102D50001602C0931802DF91CF910895009741F0B9
:102D60002EE1000000002150E1F700000197F6CFAE
:102D700008950F931F93CF93DF938C01EB014423AE
:102D800039F0809180008F7380648093800004C04C
:102D900061E089E00E94CB25C8010E94AE168091B7
:102DA00080008F738093800060E089E00E94CB25D3
:102DB000CE01DF91CF911F910F910C94AE1661E07F
:102DC00083E00E94CB2588EB9BE00E94AE1660E07A
:102DD00083E00C94CB25CF93C82F0E94DF16C150FF
:102DE00029F088E99AE30E94AE16F7CFCF910895B3
:102DF0002F923F924F925F926F927F928F929F920B
:102E0000AF92BF92CF92DF92EF92FF920F931F93F8
:102E1000CF93DF9300D000D0CDB7DEB76DEA70E07E
:102E200081EC92E00E94F6288FB78A83F894309064
:102E3000800040908100A0908400B0908500C090F8
:102E40008800D0908900E0908600F0908700809103
:102E500080008C738093800080918100807E8960E7
:102E60008093810088E893E10E94AE168DE00E9475
:102E70000126892B41F063EA70E081EC92E00E9428
:102E8000F628812C08C069E970E081EC92E00E948C
:102E9000F6288824839483E0880D0E94EB1688EA44
:102EA00091E60E94AE16811003C093E7998302C099
:102EB000E1E7E9836EE870E081EC92E00E94B428DB
:102EC0004AE050E0698181EC92E00E94E4291C8292
:102ED0001B82912C65E870E081EC92E00E94B4289E
:102EE0004AE050E0692D81EC92E00E94E429EB81F8
:102EF000FC81811003C0E15DFC4F02C0E35BFD4F2C
:102F0000859194919093170280931602E091160296
:102F1000F0911702CF010196909317028093160249
:102F200064906EE770E081EC92E00E94B4284AE081
:102F300050E0662D81EC92E00E94E429862D90E01D
:102F400090938900809388008091160290911702D7
:102F5000FC01549031962490319605911491049679
:102F6000909317028093160263E770E081EC92E081
:102F70000E94B4284AE050E0652D81EC92E00E9466
:102F8000E429712C7514D1F0822D0E947016880FDF
:102F9000880F482F50E0F801E40FF51F85919491B8
:102FA000FA013296E00FF11F6591749141E06110D2
:102FB00001C040E00E94B9167394E4CF1092190248
:102FC00088EA91E60E94AE160E94DF1693948B81E8
:102FD0009C8102969C838B839981991608F47ACF01
:102FE0008CED9FEF0E94AE168CED9FEF0E94AE1607
:102FF00084E00E94EB163092800040928100B092F3
:103000008500A0928400D0928900C0928800F0923E
:103010008700E0928600EA81EFBF68E670E081EC0D
:1030200092E00F900F900F900F90DF91CF911F9132
:103030000F91FF90EF90DF90CF90BF90AF909F9057
:103040008F907F906F905F904F903F902F900C9457
:10305000F628EF92FF920F93E12CF12C01E020E093
:1030600049E068E083E592E00E94A7200F91FF907D
:10307000EF90089583E592E00C94B421CF92DF9213
:10308000EF92FF9210921D020E94D7246B017C01E7
:103090000E94D7246C197D098E099F0968387341F5
:1030A00081059105E8F483E592E00E941820892BC0
:1030B00079F383E592E00E94DD1F20911D0230E04C
:1030C000F901E25EFD4F8083C90101968F71992756
:1030D00080931D020E94D4148823D1F281E001C0A4
:1030E00080E0FF90EF90DF90CF900895CF93DF9333
:1030F000CDB7DEB764970FB6F894DEBF0FBECDBF75
:1031000061E08BE00E94CB25198A1A8A1B8A1C8AEF
:103110001D861E861F86188A60E070E0CE014196EB
:103120000E946D14811103C069ED71E00FC061E070
:103130008AE00E94CB250E943E18882329F085EF63
:103140000E948313813649F068EC71E081EC92E0D3
:103150000E94F6288FEF9FEF47C061E086E00E9453
:10316000CB25BE016F5F7F4FCE010D960E946D147F
:10317000811103C06CEA71E0E9CF8D859E85AF8532
:10318000B88989879A87AB87BC87CE0109960E9448
:10319000E21264E670E080E090E00E94062569EAB1
:1031A00071E083E592E00E94B428CE0109960E9466
:1031B0004E1461E085E00E94CB2589859A85AB8518
:1031C000BC8549895A896B897C8984279527A627DC
:1031D000B72789879A87AB87BC87BE01675F7F4F18
:1031E000CE0101960E94AE1364960FB6F894DEBF2E
:1031F0000FBECDBFDF91CF910895CF93DF93CDB7B1
:10320000DEB764970FB6F894DEBF0FBECDBF61E0A6
:1032100085E00E94CB25198A1A8A1B8A1C8ABE0166
:103220006F5F7F4FCE0141960E946D14811103C0E4
:103230006CE871E03DC061E086E00E94CB258989A1
:103240009A89AB89BC898D879E87AF87B88BCE0161
:103250000D960E94E21264E670E080E090E00E9429
:10326000062569E871E083E592E00E94B428CE016A
:103270000D960E944E1464E670E080E090E00E949B
:10328000062566E871E083E592E00E94B42862E4D6
:1032900072E083E592E00E9408290E943E1888238C
:1032A00029F085EF0E948313823649F065E771E0CB
:1032B00081EC92E00E94F6288FEF9FEF2EC061E034
:1032C0008AE00E94CB2519861A861B861C8660E040
:1032D00070E0CE0109960E946D14811103C068E56B
:1032E00071E0E6CF61E08BE00E94CB2589859A856D
:1032F000AB85BC854D855E856F857889842795274C
:10330000A627B72789879A87AB87BC87BE01675FE7
:103310007F4FCE0101960E94AE1364960FB6F894CB
:10332000DEBF0FBECDBFDF91CF9108950F931F93E6
:10333000CF93DF938C0165E472E081EC92E00E9410
:10334000B428C0E0D0E0BE01600F711F86EB92E0B0
:103350000E944623682F81EC92E00E940A27219662
:10336000C031D10581F76EE971E081EC92E0DF9127
:10337000CF911F910F910C9408291F93CF93DF9346
:1033800020911D0230E0F901E25EFD4F8083C9010A
:1033900001968F71992780931D020E94D41488236F
:1033A00009F497C060E270E083E00E942B2660E0A1
:1033B0008BE00E94CB2560E08AE00E94CB2560E094
:1033C00086E00E94CB2560E085E00E94CB2585EF5A
:1033D0000E948313883719F40E94FD1806C08937AC
:1033E00011F0C4E009C00E947618EC01CF3F8FEFC6
:1033F000D807B9F314E031C061E083E00E94CB2527
:1034000064E670E080E090E00E94062560E083E0E2
:103410000E94CB2564E670E080E090E00E940625E3
:10342000C15051F768EE73E080E090E00E940625FD
:103430000E942C1560E08BE00E94CB2560E08AE0C2
:103440000E94CB2560E086E00E94CB2560E085E00D
:10345000DF91CF911F910C94CB2561E083E00E9416
:10346000CB256CE271E080E090E00E94062560E2EE
:1034700070E083E00E942B266CE271E080E090E037
:103480000E940625115049F760E083E00E94CB2599
:1034900068EE73E080E090E00E9406250E942C1503
:1034A00060E08BE00E94CB2560E08AE00E94CB25A3
:1034B00060E086E00E94CB2560E085E00E94CB259D
:1034C000CE010E949619CE01DF91CF911F910C94ED
:1034D000A91CDF91CF911F9108958F929F92AF9277
:1034E000BF92CF92DF92EF92FF925C010E94D724AD
:1034F0006B017C01C501AA2797FDA095BA2FC80EC4
:10350000D91EEA1EFB1E0E94D7246C157D058E0570
:103510009F0578F58CE00E940126892BE9F40E9432
:10352000D7244B015C018CE00E940126892B71F4A9
:103530000E94D724681979098A099B09613D77405F
:103540008105910580F30E94F81606C089288A2813
:103550008B2811F00E94FA1583E592E00E94182052
:10356000892B89F283E592E00E94DD1F0E94BD193C
:10357000CACFFF90EF90DF90CF90BF90AF909F9019
:103580008F9008952F923F924F925F926F927F9209
:103590008F929F92AF92BF92CF92DF92EF92FF9263
:1035A0000F931F93CF93DF93CDB7DEB7E2970FB69C
:1035B000F894DEBF0FBECDBF182FB62E9E2C3C2C2C
:1035C00028962FAC28972A966EAC7FAC2A972C961B
:1035D0006EAD7FAD2C977E8B6D8B2AAB49AB0E9475
:1035E000D7246B017C012301662457FC6094762C60
:1035F000DC01CB01840D951DA61DB71D89879A8717
:10360000AB87BC87AB2DB0E0BE87AD87612F70E084
:10361000A61BB70BBE8FAD8F2AA9E22FF0E0F88B67
:10362000EF8749A950E0E41BF50BFA83E983292DC4
:1036300030E03A8B298B10E0201B310B3E832D8329
:103640008A2D90E09C8B8B8BA32DB0E0BCA7ABA701
:103650008A1B9B0B98A78FA3312CE82DF0E0F88FE5
:10366000EF8B91012E1B3F0B8D889E88AA2497FC1F
:10367000A094BA2C89859A85AB85BC85881999094F
:10368000AA09BB09898F9A8FAB8FBC8F8D8C9E8CBA
:10369000AA2497FCA094BA2C8D8E9E8EAF8EB8A2D1
:1036A0007AA369A389809A80AA2497FCA094BA2C53
:1036B00089829A82AB82BC825CA34BA38D809E8060
:1036C000AA2497FCA094BA2C8D829E82AF82B886E1
:1036D0001EA30DA38FA098A4AA2497FCA094BA2C93
:1036E0008FA298A6A9A6BAA64901AA2497FCA094DD
:1036F000BA2C8DA69EA6AFA6B8AA8F010E94D72489
:10370000898C9A8CAB8CBC8C681579058A059B05D5
:1037100008F06BC00E94D7244B015C018C189D08F7
:10372000AE08BF082D8D3E8D4F8D58A1C501B40147
:103730000E94652AA30192010E94AB2A69A17AA185
:10374000620F731F83E00E942B2629813A814B81EF
:103750005C81C501B4010E94652AA30192010E9407
:10376000AB2A6BA17CA1620F731F8BE00E942B26FA
:103770002D813E814F815885C501B4010E94652A83
:10378000A30192010E94AB2A6DA17EA1620F731F5B
:103790008AE00E942B262FA138A549A55AA5C5016C
:1037A000B4010E94652AA30192010E94AB2A6BA575
:1037B0007CA5620F731F86E00E942B262DA53EA5D7
:1037C0004FA558A9C501B4010E94652AA301920121
:1037D0000E94AB2AB801620F731F85E00E942B265E
:1037E0008D899E890E946D1A89CF6D857E8583E0C3
:1037F0000E942B266F8578898BE00E942B26698991
:103800007A898AE00E942B266B897C8986E00E9457
:103810002B26B10185E00E942B260E94D7248985A2
:103820009A85861B970BE2960FB6F894DEBF0FBE03
:10383000CDBFDF91CF911F910F91FF90EF90DF905F
:10384000CF90BF90AF909F908F907F906F905F9040
:103850004F903F902F900C946D1ACF93DF9380324E
:1038600029F4EDE3F0E2E49180E020C0803419F423
:10387000EEE3F0E2F8CF9FEB980F9A3128F4E82FAF
:10388000F0E0EE51F04EEFCF61E083E00E94CB25F7
:1038900086EA9EE00E946D1A60E083E0DF91CF919E
:1038A0000C94CB258F5FEE0F883011F0E7FFFACF35
:1038B000C1E0C80FDE2FDD0FC830B8F561E083E04E
:1038C0000E94CB2561E08BE00E94CB25D7FF0FC083
:1038D00061E08AE00E94CB2561E086E00E94CB2572
:1038E00061E085E00E94CB258EEE92E002C08AEF77
:1038F00090E00E946D1A60E083E00E94CB2560E0BA
:103900008BE00E94CB2560E08AE00E94CB2560E03E
:1039100086E00E94CB2560E085E00E94CB258AEFFF
:1039200090E00E946D1ACF5FC6CF88EE93E0DF91E2
:10393000CF910C946D1ACF93DF93EC01899188237A
:1039400029F00E942D1C0E949412F8CFDF91CF9194
:1039500008950F931F93CF93DF938C0187EA91E033
:103960000E949B1CC0E0D0E0BE01600F711F86EB7F
:1039700092E00E9446230E942D1C2196C830D1055A
:1039800099F7DF91CF911F910F9108950F931F9396
:10399000CF93DF9326E040E052EC61E070E081ECF1
:1039A00092E00E946F274CE251E060E070E083E516
:1039B00092E00E94E32083E592E00E94462060E0CE
:1039C00089E00E94CB2561E083E00E94922560E0BF
:1039D00083E00E94CB2561E08BE00E94922560E0AD
:1039E0008BE00E94CB2561E08AE00E94922560E096
:1039F0008AE00E94CB2561E086E00E94922560E08B
:103A000086E00E94CB2561E085E00E94922560E07F
:103A100085E00E94CB2560E08CE00E94922561E069
:103A20008CE00E94CB2560E08DE00E94922561E051
:103A30008DE00E94CB2568EC70E080E090E00E9471
:103A400006250E94D72460933E0270933F02809324
:103A50004002909341020E942C1502E412E0C4EF50
:103A6000D3E0BE0186EB92E00E944623F8018193E9
:103A70008F012196CC3FF3E0DF0799F710924A02BD
:103A80006CEE73E086EB92E00E944623C82F6DEE49
:103A900073E086EB92E00E9446232C2F30E0322F19
:103AA0002227280F311D30934C0220934B026EEEDB
:103AB00073E086EB92E00E944623C82F6FEE73E01E
:103AC00086EB92E00E9446232C2F30E0322F2227F3
:103AD000280F311D30934E0220934D0260EF73E0AA
:103AE00086EB92E00E944623C82F61EF73E086EBDD
:103AF00092E00E9446232C2F30E0322F2227280FFD
:103B0000311D3093500220934F0262EF73E086EB39
:103B100092E00E944623C82F63EF73E086EB92E0A9
:103B20000E9446232C2F30E0322F2227280F311DF0
:103B300030935202209351026CEF73E086EB92E0D7
:103B40000E944623837080931A02482F50E04F5FF3
:103B50005F4F437055276CEF73E086EB92E00E9455
:103B6000492380911A02811108C062EE70E081EC55
:103B700092E00E94F62885E409C0813051F467ED97
:103B800070E081EC92E00E94F62889E40E942D1CEE
:103B90005FC0823041F469EC70E081EC92E00E94F9
:103BA000F62883E5F3CF833009F052C068EB70E06C
:103BB00081EC92E00E94F62861E083E00E94CB2530
:103BC0006EEE72E080E090E00E94062560E083E007
:103BD0000E94CB256AEF70E080E090E00E9406250D
:103BE00061E083E00E94CB256EEE72E080E090E021
:103BF0000E94062560E083E00E94CB256AEF70E01A
:103C000080E090E00E94062560E083E00E94CB25E2
:103C100060E08BE00E94CB2560E08AE00E94CB252B
:103C200060E086E00E94CB2560E085E00E94CB2525
:103C300060E08CE00E94CB2583B7817F846083BFE6
:103C4000F89483B7816083BF889583B78E7F83BFE5
:103C500064E670E080E090E0DF91CF911F910F91DA
:103C60000C9406250F931F93CF93DF930E9450135C
:103C7000EC0163E471E081EC92E00E94B4284AE038
:103C800050E0BE0181EC92E00E94FB2964E171E00A
:103C900081EC92E00E94F62869E071E081EC92E00C
:103CA0000E94B42862E472E081EC92E00E9408294C
:103CB000CC33D105D0F48E01C4E0000F111FCA959A
:103CC000E1F7C0E0D0E0C017D10728F4CE010E9490
:103CD00096196096F8CF6EE971E081EC92E0DF9181
:103CE000CF911F910F910C940829DF91CF911F91D3
:103CF0000F9108953F924F925F926F927F928F92B1
:103D00009F92AF92BF92CF92DF92EF92FF920F936A
:103D10001F93CF93DF930E94321E80911A0281116C
:103D200025C081EB91E00E949B1C82E492E00E94FE
:103D30009B1C80EC91E00E949B1C0E9450138C33D2
:103D4000910508F028C13C01E4E0660C771CEA9577
:103D5000E1F7C0E0D0E0C615D70508F01CC10E940D
:103D6000321ECE010E94A91C6096F5CF813009F069
:103D700048C06AE0D62E1AE0D6E0C0E47CE7F72E11
:103D80000E94D7242B013C011F921F93DF93CF93F6
:103D9000FF92812C2CE7A22EC12C3CE7E32E00E001
:103DA0002CE740E068EF80E00E94C21A1F921F9348
:103DB000DF93CF931F924CE7842EA12C5CE7C52E96
:103DC000E12C0CE720E04CE760E088EF0E94C21A8B
:103DD0000E9494120E94D72428E7421A2CEE520A1D
:103DE000C201861B970B0E946D1ADA948DB79EB79D
:103DF0000A960FB6F8949EBF0FBE8DBFD110C0CFEC
:103E0000CAC0823009F0B1C014E1CAE0DCE3DD2EA3
:103E1000D8E7FF24F3940CE2302E84E6982E94EF3A
:103E2000B92E0E94D7242B013C011F92CF931F92E1
:103E3000DF921F92812CA12CC12CE12C00E020E00C
:103E400040E068EC80E00E94C21A1F92CF931F925C
:103E5000DF931F9220E040E060E088EC0E94C21AED
:103E600088EC90E00E946D1A1F92CF931F92DF9210
:103E70001F9220E040E06AEF80E00E94C21A1F9289
:103E8000CF931F92DF931F928AEFA82E9AEFE92E0D
:103E900020E040E060E08AEF0E94C21A1F92CF93B8
:103EA0001F92DF938AEF8F9326E9A22E3AEFC32E5B
:103EB00046E9E42E0AEF2AEF40E060E080E00E944D
:103EC000C21A1F92CF931F92DF9386E98F935AEF06
:103ED000852E62E3A62E76E9C72EE2E3EE2E06E9F2
:103EE00026E94AEF60E080E00E94C21A1F92CF9359
:103EF000FF923F929F92F6E98F2EA12CA2E3CA2E49
:103F0000E12C02E324E646E960E080E00E94C21A68
:103F10008DB79EB783960FB6F8949EBF0FBE8DBF28
:103F20001F92CF93FF92BF921F92B4E68B2EC12CAB
:103F300000E020E044E660E080E00E94C21A0E94B7
:103F400094120E94D72420E3421A28EF520AC20199
:103F5000861B970B0E946D1A11500F900F900F90B7
:103F60000F900F9009F05DCF16C08330A1F483E469
:103F7000DF91CF911F910F91FF90EF90DF90CF9045
:103F8000BF90AF909F908F907F906F905F904F9079
:103F90003F900C942D1CDF91CF911F910F91FF90BA
:103FA000EF90DF90CF90BF90AF909F908F907F90D9
:103FB0006F905F904F903F9008952091B4023091A0
:103FC000B50228173907B9F49091720280917302F3
:103FD000981789F0E0917202F0E0EC58FD4F808173
:103FE0002091720230E02F5F3F4F2F7333272093D1
:103FF000720290E008958FEF9FEF08952091B40230
:104000003091B5022817390781F49091720280919E
:104010007302981751F0E0917202F0E0EC58FD4FF6
:104020008081992787FD909508958FEF9FEF0895E0
:104030002091B4023091B5022817390771F48091AC
:1040400073022091720290E0805C9F4F821B910965
:1040500060E470E00E94752A089580E090E0089581
:104060002091B4023091B5022817390739F48FB77F
:10407000F89410927302109272028FBF089520E09C
:1040800001972FEF8F3F9207D9F708952091B4023F
:104090003091B5022817390789F0FC01258D2E7F54
:1040A000258F2FB7F894109273021092720290939A
:1040B000B5028093B4022FBF81E0089580E0089597
:1040C0001F93CF93DF93EC01162F61E0812F0E94A5
:1040D000922561E0812F0E94CB25812F90E0FC0189
:1040E000EC57FE4DE491E88BFC01E856FE4DE4915F
:1040F000F0E0EE0FFF1FEA54FE4D859194919A8BEC
:10410000898BDF91CF911F9108951F93CF93DF93F8
:10411000EC01162F60E0812F0E9492251C87612FF1
:1041200070E0FB01EC57FE4DE491ED87FB01E85692
:10413000FE4DE491F0E0EE0FFF1FE455FE4D85913A
:1041400094919F878E87DF91CF911F910895CF9291
:10415000DF92EF92FF920F931F93CF93DF93EC01C7
:10416000162FC7011B821A8238EEC32E33E0D32EDE
:10417000E12CF12CCC82DD82EE82FF82E9EFF1E0CE
:10418000F983E8831C8A1B8A1E8A1D8A188E1F8A5F
:104190001A8E198E9C8F8B8F8D8D8E7F20FB81F9CF
:1041A00000FB82F98D8F642FCE010E946020612F69
:1041B000CE01DF91CF911F910F91FF90EF90DF9093
:1041C000CF900C9485200F931F93CF93DF93EC0136
:1041D0001A8E198E188E1F8A1E8A1D8AA2E6B0E2D8
:1041E00080E090E0FD01059115912591349104172F
:1041F00015072607370709F031C02CE0289FF0018A
:10420000299FF00D1124EA59FF4D259134913C8BE3
:104210002B8B2CE0289FF001299FF00D1124E859E9
:10422000FF4D259134913E8B2D8B2CE0289FF00182
:10423000299FF00D1124E659FF4D25913491388FB7
:104240002F8B2CE0289FF001299FF00D1124E459B9
:10425000FF4D859194919A8F898F08C001961C9685
:104260008C30910509F0BECF1C8A1B8A8F89988DEE
:10427000892B09F443C08C858631E0F520916800D4
:10428000883050F091E08E3008F490E081E001C079
:10429000880F9A95EAF701C084E0822B809368002A
:1042A0002C85283038F02E3040F0263148F0E0E000
:1042B000F0E008C0EDE6F0E005C0EBE6F0E002C09B
:1042C000ECE6F0E03081283030F481E001C0880F66
:1042D0002A95EAF70DC0822F90E02E3010F408974F
:1042E00001C00E9791E001C0990F8A95EAF7892FD6
:1042F000832B8083898D9A8D0E943F20CE01DF9190
:10430000CF911F910F910C944620FC0144854631BA
:1043100050F5483028F04E3030F4EBE6F0E005C0C0
:10432000EDE6F0E002C0ECE6F0E05081483040F409
:1043300081E090E0042E01C0880F0A94EAF710C0D3
:10434000242F30E04E3018F42850310902C02E508E
:10435000310981E090E0022E01C0880F0A94EAF74B
:10436000809585238083089529EF31E0FC01318316
:1043700020830C94852170E0FC01858D82FB22272F
:1043800020F930E0809180008F736217730709F085
:1043900080688093800008955F926F927F928F92E1
:1043A0009F92AF92BF92CF92DF92EF92FF920F93C4
:1043B0001F93CF93DF93EC01662E898D9A8D892B05
:1043C00039F481E090E09B838A8380E090E06DC0C7
:1043D0009FB6F8947090800080908100A090840037
:1043E000B0908500C0908800D0908900E090860051
:1043F000F0908700809180008873826880938000AD
:1044000080918100807E8961809381001092850077
:104410001092840082ED90E0909389008093880050
:1044200085EA91E0909387008093860060E0CE015A
:104430000E94BB21898D9A8D05960E943F2008E03D
:1044400010E055245394852D862111F061E001C0C0
:1044500060E0CE010E94BB21898D9A8D0E943F2091
:10446000550C0150110979F761E0CE010E94BB2182
:104470007092800080928100B0928500A0928400AA
:10448000D0928900C0928800F0928700E092860066
:10449000898D9A8D0E943F209FBE62E070E080E08F
:1044A00090E00E94062581E090E0DF91CF911F917E
:1044B0000F91FF90EF90DF90CF90BF90AF909F90C3
:1044C0008F907F906F905F900895EF92FF920F937F
:1044D0001F93CF93DF93EC01EE85FF8580819D854F
:1044E00089239D8D91FF03C0811103C053C08111A9
:1044F00051C0E091C102F091C2020190F081E02D23
:104500006EE281EC92E009958B899C890E943F20A4
:1045100008E010E0EE24E394F12C8D899E890E943E
:104520003F20EE85FF8580819D85892311F0FE283F
:1045300003C08E2D8095F822EE0C0150110969F709
:104540008F89988D0E943F208D8D81FDF0946F2D75
:1045500081EC92E00E940A278091730220917202FE
:1045600090E001968F73992730E08217930779F0D6
:10457000E0917302F0E0EC58FD4FF08280917302FD
:1045800090E001968F7399278093730203C08D8DFD
:1045900081608D8FDF91CF911F910F91FF90EF90F0
:1045A00008958091B4029091B502009711F00C9497
:1045B000652208951F920F920FB60F9211242F9328
:1045C0003F934F935F936F937F938F939F93AF939B
:1045D000BF93EF93FF930E94D122FF91EF91BF9180
:1045E000AF919F918F917F916F915F914F913F918B
:1045F0002F910F900FBE0F901F9018951F920F9242
:104600000FB60F9211242F933F934F935F936F93A5
:104610007F938F939F93AF93BF93EF93FF930E94EA
:10462000D122FF91EF91BF91AF919F918F917F9197
:104630006F915F914F913F912F910F900FBE0F900F
:104640001F9018951F920F920FB60F9211242F935F
:104650003F934F935F936F937F938F939F93AF930A
:10466000BF93EF93FF930E94D122FF91EF91BF91EF
:10467000AF919F918F917F916F915F914F913F91FA
:104680002F910F900FBE0F901F901895CB010C9497
:10469000822CCB01642F0C948A2CCF93C62F2091AF
:1046A000690324FF07C020916A0338E82327209379
:1046B0006A0303C02AE520936903DC01EBE6F3E01B
:1046C0009C2F9E0F8D918193892F8E1B1816D4F3EA
:1046D0006C2F8BE693E00E942711CC5FC093690397
:1046E000CF910895CF93DF9380917A03835087FD14
:1046F000A9C090917703209176032D3209F0A0C0D4
:10470000883009F09DC0CCE0D0E0C91BD109C25867
:10471000DC4F83EC80935E038AE580930B0110925B
:10472000B7028881807621F0CE010E9487127FC077
:104730009A81109267038981811106C010926803E3
:1047400027E633E082E06FC0853019F490937B0355
:1047500067C0863009F04EC08B81813041F484E11E
:1047600091E2909379038093780382E13FC0823095
:1047700041F482EF90E2909379038093780382E290
:1047800035C08330F1F4911108C08CE691E290932A
:1047900079038093780384E029C0913041F486E561
:1047A00091E2909379038093780386E11FC0923061
:1047B000E1F486E291E2909379038093780380E3B9
:1047C00015C0813241F484E091E2909379038093A3
:1047D000780389E00BC0823241F48FE390E290933A
:1047E00079038093780383E201C080E090E49093A2
:1047F000B7021DC0883069F0893019F490937D03A9
:104800000FC08A3049F08B3059F48BE480936A03EF
:1048100007C02DE733E002C027E633E081E003C0A4
:1048200027E633E080E030937903209378039F817B
:10483000911104C09E81981708F4892F80930A0172
:1048400010927A0380910B0184FF4DC080910A0180
:104850008F3F09F448C0C82F893008F0C8E08C1B8E
:1048600080930A0180915E0398E8892780935E0314
:10487000CC2361F180917803909179032091B70264
:1048800026FF12C0AFE5B3E02EE533E0209530956A
:10489000280F391F4C2F4A0FF901EA0FFB1FE49133
:1048A000ED934A13F9CF09C0EFE5F3E0DC012C2FBB
:1048B0002E0F3D9131932E13FCCF01962FEF2C0F2D
:1048C000820F911D90937903809378036C2F8FE56D
:1048D00093E00E942711CC5FCC3019F08FEF8093CA
:1048E0000A01C0930B0184E199B1947131F48150B4
:1048F000D9F710927B0310927503DF91CF91089541
:10490000E9E6F0E0808182608083E89A8BE480931E
:104910006A038AE58093690308951F920F920FB688
:104920000F9211242F933F938F939F93AF93BF9335
:104930008091B9029091BA02A091BB02B091BC02E1
:104940003091B80223E0230F2D3720F40196A11DEA
:10495000B11D05C026E8230F0296A11DB11D2093AD
:10496000B8028093B9029093BA02A093BB02B093AD
:10497000BC028091BD029091BE02A091BF02B09195
:10498000C0020196A11DB11D8093BD029093BE028D
:10499000A093BF02B093C002BF91AF919F918F913E
:1049A0003F912F910F900FBE0F901F9018952FB72A
:1049B000F8946091B9027091BA028091BB02909113
:1049C000BC022FBF08953FB7F8948091BD0290912B
:1049D000BE02A091BF02B091C00226B5A89B05C03F
:1049E0002F3F19F00196A11DB11D3FBF6627782FFB
:1049F000892F9A2F620F711D811D911D42E0660F54
:104A0000771F881F991F4A95D1F70895CF92DF929B
:104A1000EF92FF92CF93DF936B017C010E94E3241E
:104A2000EB01C114D104E104F10489F00E942A26AB
:104A30000E94E3246C1B7D0B683E734090F381E081
:104A4000C81AD108E108F108C851DC4FEACFDF915C
:104A5000CF91FF90EF90DF90CF900895789484B538
:104A6000826084BD84B5816084BD85B5826085BD6A
:104A700085B5816085BDEEE6F0E080818160808350
:104A8000E1E8F0E010828081826080838081816033
:104A90008083E0E8F0E0808181608083E1EBF0E0FA
:104AA000808184608083E0EBF0E08081816080839E
:104AB000EAE7F0E080818460808380818260808387
:104AC0008081816080838081806880831092C100B2
:104AD0000895833081F028F4813099F08230A1F07C
:104AE00008958730A9F08830B9F08430D1F48091EE
:104AF00080008F7D03C0809180008F77809380003D
:104B0000089584B58F7702C084B58F7D84BD0895E4
:104B10008091B0008F7703C08091B0008F7D80932B
:104B2000B0000895CF93DF9390E0FC01EC57FE4D69
:104B30002491FC01E856FE4D8491882349F190E0D0
:104B4000880F991FFC01E054FE4DA591B4918A5441
:104B50009E4DFC01C591D4919FB7611108C0F89496
:104B60008C91209582238C93888182230AC06230A5
:104B700051F4F8948C91322F309583238C93888153
:104B8000822B888304C0F8948C91822B8C939FBFD6
:104B9000DF91CF9108950F931F93CF93DF931F92CF
:104BA000CDB7DEB7282F30E0F901E059FE4D8491F2
:104BB000F901EC57FE4D1491F901E856FE4D0491B0
:104BC0000023C9F0882321F069830E946925698147
:104BD000E02FF0E0EE0FFF1FEA54FE4DA591B491D7
:104BE0009FB7F8948C91611103C01095812301C087
:104BF000812B8C939FBF0F90DF91CF911F910F91CD
:104C00000895CF93DF93282F30E0F901E059FE4D4E
:104C10008491F901EC57FE4DD491F901E856FE4D0F
:104C2000C491CC2391F081110E946925EC2FF0E012
:104C3000EE0FFF1FE455FE4DA591B4912C912D234D
:104C400081E090E021F480E002C080E090E0DF911C
:104C5000CF91089508951F93CF93DF93182FEB0101
:104C600061E00E949225209711F460E004C0CF3FDC
:104C7000D10539F461E0812FDF91CF911F910C9420
:104C8000CB25E12FF0E0E059FE4DE491E330F9F05F
:104C900048F4E130B9F0E230A1F584B5806284BD1A
:104CA000C8BD34C0E730E9F0E83019F1E43049F527
:104CB00080918000806280938000D0938B00C093AD
:104CC0008A0024C084B5806884BDC7BD1FC08091A0
:104CD0008000806880938000D0938900C093880012
:104CE00015C08091B00080688093B000C093B3007D
:104CF0000DC08091B00080628093B000C093B4007A
:104D000005C0C038D1050CF0B5CFAFCFDF91CF9142
:104D10001F910895FC01818D228D90E0805C9F4F52
:104D2000821B910960E470E00E94752A0895FC01DD
:104D3000918D828D981731F0828DE80FF11D858D50
:104D400090E008958FEF9FEF0895FC01918D828D83
:104D5000981761F0828DDF01A80FB11D5D968C91CF
:104D6000928D9F5F9F73928F90E008958FEF9FEFDA
:104D7000089589E298E2892B49F080E090E0892B40
:104D800029F00E94292881110C9400000895FC014B
:104D9000848DDF01A80FB11DA35ABF4F2C91848DC4
:104DA00090E001968F739927848FA689B7892C93F9
:104DB000A089B1898C9180648C93938D848D981394
:104DC00006C00288F389E02D80818F7D808308955D
:104DD000CF93DF93EC01888D8823C9F0EA89FB89A2
:104DE000808185FD05C0A889B9898C9186FD0FC099
:104DF0000FB607FCF5CF808185FFF2CFA889B9896E
:104E00008C9185FFEDCFCE010E94C726E7CFDF91C1
:104E1000CF910895CF92DF92FF920F931F93CF937C
:104E2000DF931F92CDB7DEB76C01DC015B969C91DE
:104E30005B975C968C915C97981307C05096ED91A8
:104E4000FC915197808185FD32C0F601038D10E001
:104E50000F5F1F4F0F731127F02EF601848DF8128C
:104E600011C00FB607FCF9CFD6015096ED91FC9119
:104E70005197808185FFF1CFC60169830E94C726C3
:104E80006981EBCF838DE80FF11DE35AFF4F6083FB
:104E9000D6015B960C935B975296ED91FC915397DC
:104EA00080818062808381E058968C930DC0D6010A
:104EB0005696ED91FC91579760835096ED91FC9139
:104EC000519780818064808381E090E00F90DF9132
:104ED000CF911F910F91FF90DF90CF900895BF92D7
:104EE000CF92DF92EF92FF92CF93DF93EC016A01B2
:104EF0007B01B22EE889F98982E08083411581EE39
:104F0000580761057105A1F060E079E08DE390E05C
:104F1000A70196010E94892A2150310941095109AE
:104F20005695479537952795211580E1380798F0D4
:104F3000E889F989108260E874E88EE190E0A701C1
:104F400096010E94892A215031094109510956953B
:104F5000479537952795EC85FD853083EE85FF8550
:104F60002083188EEC89FD89B082EA89FB898081D3
:104F700080618083EA89FB89808188608083EA89F7
:104F8000FB89808180688083EA89FB8980818F7DAD
:104F90008083DF91CF91FF90EF90DF90CF90BF9013
:104FA00008951F920F920FB60F9211242F938F9393
:104FB0009F93EF93FF93E091D102F091D202808111
:104FC000E091D702F091D80282FD12C090818091C9
:104FD000DA028F5F8F732091DB02821751F0E0912C
:104FE000DA02F0E0EF53FD4F958F8093DA0201C0B3
:104FF0008081FF91EF919F918F912F910F900FBE24
:105000000F901F9018951F920F920FB60F921124B8
:105010002F933F934F935F936F937F938F939F93C0
:10502000AF93BF93EF93FF9381EC92E00E94C7266A
:10503000FF91EF91BF91AF919F918F917F916F9170
:105040005F914F913F912F910F900FBE0F901F9046
:10505000189581EC92E00E948A2621E0892B09F4C0
:1050600020E0822F08951092C4021092C30288EEAD
:1050700093E0A0E0B0E08093C5029093C602A093B5
:10508000C702B093C80289E092E09093C202809375
:10509000C10285EC90E09093CE028093CD0284EC27
:1050A00090E09093D0028093CF0280EC90E09093B8
:1050B000D2028093D10281EC90E09093D40280934D
:1050C000D30282EC90E09093D6028093D50286ECD6
:1050D00090E09093D8028093D7021092DA02109257
:1050E000DB021092DC021092DD020895CF92DF9273
:1050F000EF92FF920F931F93CF93DF936C017A018E
:10510000EB01E60EF71E00E010E0CE15DF0561F0C2
:105110006991D601ED91FC910190F081E02DC601DD
:105120000995080F191FF1CFC801DF91CF911F9189
:105130000F91FF90EF90DF90CF900895611571056A
:1051400081F0DB010D900020E9F7AD0141505109DC
:10515000461B570BDC01ED91FC910280F381E02DA1
:10516000099480E090E00895EF92FF920F931F93CF
:10517000CF93DF938C01FB01C0E0D0E064917F010D
:105180008FEFE81AF80A662361F0D801ED91FC91DF
:105190000190F081E02DC8010995C80FD91FF701D2
:1051A000EDCFCE01DF91CF911F910F91FF90EF9046
:1051B00008950C949E28DC01ED91FC910190F08102
:1051C000E02D09940F931F93CF93DF93EC016DE0D3
:1051D0000E94DB288C016AE0CE010E94DB28800F50
:1051E000911FDF91CF911F910F9108950F931F93FE
:1051F000CF93DF93EC010E94B4288C01CE010E9472
:10520000E228800F911FDF91CF911F910F91089598
:105210000F931F93CF93DF93EC010E949E288C0184
:10522000CE010E94E228800F911FDF91CF911F9144
:105230000F9108950F931F93CF93DF93EC010E947A
:10524000DB288C01CE010E94E228800F911FDF91A4
:10525000CF911F910F9108958F929F92AF92BF921D
:10526000CF92DF92EF92FF920F931F93CF93DF9332
:10527000CDB7DEB7A1970FB6F894DEBF0FBECDBF96
:105280007C01C42EE52FCB01D22E19A221E02D15D1
:1052900010F02AE0D22E8E010F5D1F4F8D2C912C25
:1052A000A12CB12C6C2D7E2FA50194010E94892A7E
:1052B0008C2DD29E80191124015011098A3014F4CA
:1052C000805D01C0895CF8018083211531054105AD
:1052D000510521F0C22EE32FCA01E4CFB801C70166
:1052E0000E949E28A1960FB6F894DEBF0FBECDBFD8
:1052F000DF91CF911F910F91FF90EF90DF90CF90B2
:10530000BF90AF909F908F900895CF92DF92EF92D1
:10531000FF920F931F93CF93DF93EC016A017B0100
:105320002115310579F4E881F9810190F081E02DB2
:10533000642FDF91CF911F910F91FF90EF90DF903D
:10534000CF9009942A303105E9F477FF1AC06DE255
:105350000E94DB288C0144275527BA014C195D09AE
:105360006E097F092AE0CE010E942C29800F911F2F
:10537000DF91CF911F910F91FF90EF90DF90CF9031
:1053800008952AE0B701A601CE01DF91CF911F91C8
:105390000F91FF90EF90DF90CF900C942C299A0101
:1053A000AB01662757FD6095762F0C948529211552
:1053B000310541F4DC01ED91FC910190F081E02D8B
:1053C000642F09940C942C290F931F93CF93DF9390
:1053D000EC019A01462F50E060E070E00E94D7296E
:1053E0008C01CE010E94E228800F911FDF91CF91A6
:1053F0001F910F9108950F931F93CF93DF93EC01AB
:105400009A01AB0160E070E00E94D7298C01CE01C7
:105410000E94E228800F911FDF91CF911F910F9181
:105420000895CF93DF9300D000D0CDB7DEB79B01B6
:10543000AC01611571058105910569F069833A83B5
:105440004B835C830E94742C29813A814B815C815F
:105450000E94AB2A03C060E070E0CB010F900F9078
:105460000F900F90DF91CF910895CF92DF92EF923E
:10547000FF926B017C01621773078407950764F440
:10548000CA01B9016C197D098E099F090E94112A70
:105490006C0D7D1D8E1D9F1DFF90EF90DF90CF90B6
:1054A000089508950E942E250E94512A0E94C61C2C
:1054B000C9EBD6E20E947A1E2097E1F30E94B9263A
:1054C000F9CF0C94FE2A0C94962BDB018F939F93BB
:1054D0000E94CA2ABF91AF91A29F800D911DA39FE8
:1054E000900DB29F900D1124089597FB072E16F48E
:1054F000009407D077FD09D00E94D52A07FC05D07B
:105500003EF4909581959F4F0895709561957F4FDA
:105510000895A1E21A2EAA1BBB1BFD010DC0AA1FF4
:10552000BB1FEE1FFF1FA217B307E407F50720F00C
:10553000A21BB30BE40BF50B661F771F881F991F87
:105540001A9469F760957095809590959B01AC01D0
:10555000BD01CF010895052E97FB1EF400940E9413
:10556000C22A57FD07D00E94892A07FC03D04EF4B7
:105570000C94C22A50954095309521953F4F4F4F3E
:105580005F4F089590958095709561957F4F8F4FEF
:105590009F4F08950E94EF2AA59F900DB49F900DF4
:1055A000A49F800D911D11240895AA1BBB1B51E1DE
:1055B00007C0AA1FBB1FA617B70710F0A61BB70B83
:1055C000881F991F5A95A9F780959095BC01CD0128
:1055D0000895EE0FFF1F0590F491E02D0994A29F0E
:1055E000B001B39FC001A39F700D811D1124911DB7
:1055F000B29F700D811D1124911D0895CF93DF93EB
:105600008230910510F482E090E0E0919603F091F1
:10561000970320E030E0A0E0B0E0309739F140811E
:10562000518148175907B8F04817590771F482811A
:105630009381109729F013969C938E9312972CC008
:10564000909397038093960327C02115310531F07D
:105650004217530718F0A901DB0101C0EF019A01BD
:10566000BD01DF010280F381E02DD7CF2115310587
:10567000F9F0281B390B2430310580F48A819B8195
:105680006115710521F0FB019383828304C090931F
:10569000970380939603FE01329644C0FE01E20F09
:1056A000F31F8193919322503109398328833AC0A3
:1056B0002091940330919503232B41F42091020112
:1056C00030910301309395032093940320910001BE
:1056D000309101012115310541F42DB73EB74091BC
:1056E000040150910501241B350BE0919403F091C6
:1056F0009503E217F307A0F42E1B3F0B2817390779
:1057000078F0AC014E5F5F4F2417350748F04E0F1D
:105710005F1F50939503409394038193919302C02C
:10572000E0E0F0E0CF01DF91CF910895CF93DF93D8
:10573000009709F487C0FC01329713821282C0914E
:105740009603D0919703209781F420813181280F0F
:10575000391F80919403909195038217930779F5EF
:10576000F0939503E09394036DC0DE0120E030E0F8
:10577000AE17BF0750F412964D915C9113979D019F
:105780004115510509F1DA01F3CFB383A2834081BA
:105790005181840F951F8A179B0771F48D919C91FD
:1057A0001197840F951F02969183808312968D9195
:1057B0009C911397938382832115310529F4F093EB
:1057C0009703E09396033EC0D9011396FC93EE93A2
:1057D00012974D915D91A40FB51FEA17FB0779F45D
:1057E00080819181840F951F0296D90111969C9317
:1057F0008E938281938113969C938E931297E0E00F
:10580000F0E08A819B81009719F0FE01EC01F9CF4D
:10581000CE01029628813981820F931F2091940333
:10582000309195032817390769F4309729F41092BD
:1058300097031092960302C013821282D0939503AD
:10584000C0939403DF91CF9108958F929F92AF926E
:10585000BF92CF92DF92EF92FF92CF93DF93EC0152
:10586000688179818A819B81611571058105910526
:1058700021F464E279ED8BE597E02DE133EF41E02F
:1058800050E00E94AB2A49015A019B01AC01A7EAF2
:10589000B1E40E94CA2A6B017C01ACEEB4EFA50111
:1058A00094010E949B2CC60ED71EE81EF91EF7FE1F
:1058B00006C081E0C81AD108E10880E8F80AC88269
:1058C000D982EA82FB82C701B6019F77DF91CF912F
:1058D000FF90EF90DF90CF90BF90AF909F908F9010
:1058E00008950E94252C089586E091E00E94252CC1
:1058F00008956093060170930701809308019093C7
:1059000009010895F999FECF92BD81BDF89A9927B2
:1059100080B50895262FF999FECF1FBA92BD81BD9B
:1059200020BD0FB6F894FA9AF99A0FBE0196089521
:10593000B7FF0C94CA2A0E94CA2A821B930B0895AF
:1059400011E2CEECD1E204C0FE010E94EB2A2296C5
:0A595000C03DD107C9F7F894FFCF5E
:10595A0000009803800001000000FF5A50696E673A
:10596A00210072656164576F726446726F6D427589
:10597A00662829206C696E65206E6F6973653A2006
:10598A000042616420727820646174613A200042A6
:10599A006164207278206865616465723A20004506
:1059AA0052524F523A20556E6B6E6F776E20636873
:1059BA00617261637465723A2000444B4E2D00682F
:1059CA00747470733A2F2F64636461726B2E6E6500
:1059DA00742F202053656E642074686520666F6C8E
:1059EA006C6F77696E6720636F6465733A0A004863
:1059FA0048565553422D00444B4E204441534820AB
:105A0A00004848564D4F52534520444153482000C0
:105A1A00485454505320434F4C4F4E20534C4153FB
:105A2A004820534C4153482044434441524B20445C
:105A3A004F54204E45542020202053454E442043A5
:105A4A004F4445530000000000CC2176281820DD81
:105A5A001FFE1F3020000000000A2776288A26A58C
:065A6A00269726E8260045
:00000001FF
