:100000000C94D5010C942B020C94FD010C947E12DF
:100010000C94A2120C94C6120C94FD010C94FD01D8
:100020000C94FD010C94FD010C94FD010C94FD0158
:100030000C94FD010C94FD010C94FD010C94FD0148
:100040000C945E150C94FD010C9419180C944B182B
:100050000C94FD010C94FD010C94FD010C94FD0128
:100060000C94FD010C94FD015368757474696E67FE
:1000700020646F776E2E2E2E0048656172742062A8
:100080006561742E2E2E00536E6F72696E672E2E70
:100090002E004D6F727365206F7574707574206FCC
:1000A0006620636F6465732E2E2E005553422069BF
:1000B000732072656164792E004848565345524951
:1000C000414C2D0068747470733A2F2F646364611F
:1000D000726B2E6E65742F202053656E64207468D9
:1000E0006520666F6C6C6F77696E6720636F6465FF
:1000F000733A004E756D626572206F66206D657390
:1001000073616765733A20004572726F7220726581
:100110006164696E672030622066726F6D2072784C
:100120004275662E004572726F7220726561646955
:100130006E67203062003061003079004572726F66
:10014000722072656164696E672030782066726F14
:100150006D2072784275662E003062004572726FB3
:10016000722072656164696E672030612066726F0B
:100170006D207278427566004572726F72207265EA
:100180006164696E67203061004572726F7220721F
:10019000656164696E672030792066726F6D2072C8
:1001A000784275662E006E756D4D736773206E6FA5
:1001B000742076616C69642E2053657474696E676F
:1001C00020746F20302E2054686973206973206E6C
:1001D0006F726D616C206966207468697320697341
:1001E00020796F757220666972737420706169720C
:1001F000696E672E00444B4E2D0030780005181AAA
:100200000C02120E1004170D1407060F161D0A0813
:100210000309110B191B1C015A05010906A101054F
:100220000719E029E7150025017501950881029558
:100230000375082565190029658100C000C2010009
:100240000100110011000C0000E100000A0025006F
:100250002500210000960000190039003900360001
:10026000127A00001F004600460044008070000023
:1002700022004D004D004A00004B00003600750082
:1002800075007200403800004A009C009C009900F4
:10029000802500007200EC00EC00E900C0120000B4
:1002A000E900DA01DA01D70160090000D701B603DD
:1002B000B603B303B0040000B3036E076E076B0709
:1002C0002C010000DC0EC11DC11DBE1D0902220053
:1002D000010100803209040000010300000009212F
:1002E000010100012223000705810308000A120111
:1002F000100100000008C016DB27000E01020001FB
:100300003003440043004400610072006B004E0063
:100310006500740020004900440020004200610094
:1003200064006700650020003200300031003400B6
:100330001603640063006400610072006B002E000D
:100340006E00650074000403090400000008000248
:10035000010000030407000000000000000001028B
:100360000408102040800102040810200102040843
:100370001020040404040404040402020202020221
:1003800003030303030300000000230026002900E9
:1003900000000000250028002B00000000002400C1
:1003A00027002A00D7077B18E80711241FBECFEFCC
:1003B000D8E0DEBFCDBF12E0A0E0B1E0E8EBF8E3AB
:1003C00002C005900D92AA33B107D9F723E0AAE342
:1003D000B2E001C01D92A93BB207E1F713E0C8EA01
:1003E000D3E004C02297FE010E949A1AC43AD107B2
:1003F000C9F70E94BF180C944F1C0C940000A82F42
:10040000B92F80E090E041E050EA609530E009C00B
:100410002D9182279795879510F084279527305E38
:10042000C8F36F5FA8F30895EADF8D939D93089555
:10043000A6E088279927AA9569F00197E1F34C99DE
:10044000FCCF4C9BFECF81E09927A9B1019611F01A
:10045000A471D9F70895CF93CFB7CF93DF93C39506
:100460004C9BE9F74C9B0BC04C9B09C04C9B07C0B5
:100470004C9B05C04C9B03C04C9B01C08BC06F9331
:10048000C0919803DD27C156DC4F2F9365E54C9B47
:1004900003C02F916F91E6CF0F931F934F9320E0EE
:1004A00040E15F9309B1047104FB27F93F9350E0E9
:1004B0003BE039C0147140642F77012F5F5F1EC08D
:1004C000406819B114712F7752501FC0406409B1B0
:1004D0002F770471D1F15F5F00C023C0406219B172
:1004E0002F77147191F15F5F00C025C00471102750
:1004F000515012F45D5F0000115027952C3F19B147
:10050000C8F614710127015027952C3FC8F64227E1
:10051000499309B1047110274F73115027952C3F4F
:10052000A8F64695469519B1147179F00127015046
:1005300027952C3F98F66B5A60F3315009B1B0F60D
:1005400000C011E01CBB002719C03B503195C31BF4
:10055000D04011E01CBB0881033C09F10B34F9F0D9
:10056000209196031981110F1213EDCF4A81441F78
:10057000093651F10D3211F0013E29F700939D0328
:100580003F915F914F911F910F912F916F91CCB33C
:10059000C0FD65CFDF91CF91CFBFCF91189520914E
:1005A0009D03222369F310919B03112391F53430AD
:1005B00092F130939B0320939703109198033BE0B3
:1005C000311B3093980327C000919B0301300CF539
:1005D0000AE54F7049F430910B0134FD1DC00093C2
:1005E0000B01CFE7D3E01CC030918A0334FD14C067
:1005F00000938A03CBE8D3E013C0052710E000C0C6
:1006000000000BB91AC0052710E0221F1DC010E022
:1006100021C04AE502C032ED432FC4E1D0E032E010
:100620001AB114615C9A0BB11AB954E120E865E380
:1006300020FF05270BB9279517951C3FF0F6669507
:10064000B8F7B1F720FF05270BB9279517951C3F81
:10065000D0F62795179517FF052700001C3F0BB90B
:10066000B0F629913A9519F70B7E10919C03110F62
:10067000C651D0400BB911F01093960311E01CBB8A
:1006800000611AB11B7E402F4B7E54E05A95F1F762
:100690000BB91AB94BB974CFCF93DF93EC011BB8E8
:1006A0008AB18B6E8AB9F89457985F98579A5F9A77
:1006B0000E9431147894188219821A821B8264E095
:1006C000CE01DF91CF910C94F112CF93DF93EC0127
:1006D00080918A0384FFFCCF188219821A821B82C0
:1006E0004883698364E0CE010E94F11280918A03FD
:1006F00084FFFCCF188219821A821B8264E0CE012B
:10070000DF91CF910C94F11240E00C946503FC0151
:1007100080818076803231F481818A3019F483813E
:100720008093910280E00895CF92DF92EF92FF9242
:100730000E94A815C0905E02D0905F02E090600217
:10074000F09061026C157D058E059F05B0F16CE09F
:1007500071E082EE92E00E949D160E94A8156B0146
:100760007C0120E737E140E050E060EA7FE080E094
:1007700090E00E94F9176C0D7D1D8E1D9F1D6093EA
:100780005E0270935F0280936002909361026AEF51
:1007900071E083E792E00E94781662E672E083E7F8
:1007A00092E00E94CC166EE971E082EE92E0FF903A
:1007B000EF90DF90CF900C94CC16FF90EF90DF90ED
:1007C000CF900895CF92DF92EF92FF920F931F93F5
:1007D000CF93DF93DC016D917C91119712964D912F
:1007E0005C911397E0906B02F0906C0200916D02A7
:1007F00010916E02C0916F02D091700280917102CF
:1008000090917202E0E0F0E0E95CF1469A012295F5
:100810003295307F3227207F32272E0D3F1D6A010F
:10082000689414F8D694C7941694E1F7C00ED11EBC
:100830002C253D256A01CE0EDF1E2C253D25620F9D
:10084000731F9B0122953295307F3227207F3227FC
:100850002C0F3D1F6B01689414F8D694C79416941E
:10086000E1F7C80ED91E2C253D256B01CE0EDF1EEB
:100870002C253D25420F531FE03E26ECF20721F6C2
:1008800011967C936E9313965C934E931297DF911F
:10089000CF911F910F91FF90EF90DF90CF9008952F
:1008A000CF936EEF73E086ED92E00E94EA12C82FBC
:1008B0006FEF73E086ED92E00E94EA122C2F30E099
:1008C000322F2227A901480F511DCA01CF91089547
:1008D000CF93C82F492F6EEF73E086ED92E00E9410
:1008E000ED124C2F6FEF73E086ED92E0CF910C94F8
:1008F000ED12FC018081282F30E02F5F3F4F2F71D8
:1009000033272083089590913D02E82FF0E0E90F0E
:10091000F11DEF71FF27E25CFD4F80810895DB013F
:1009200020E030E0F901F595E795E80FF91F4081E7
:1009300050E020FF02C0E0E001C0E4E002C05595B5
:100940004795EA95E2F74F704F5B4D932F5F3F4F0E
:100950002830310539F7FB01108608954F925F92D8
:100960006F927F928F929F92AF92BF92CF92DF92BF
:10097000EF92FF920F931F93CF93DF93CDB7DEB724
:1009800029970FB6F894DEBF0FBECDBF782E692E23
:10099000CB01BE016F5F7F4F0E948F040E94500405
:1009A0008C018C33910578F066EA71E082EE92E07A
:1009B0000E9478164AE050E0B80182EE92E00E9470
:1009C000BF1700E010E0480154E0880C991C5A95CC
:1009D000E1F7E12CF12CE814F904C8F4A72CB62CAB
:1009E000C12CD12C5C2CF50141905F01B6016E0D3C
:1009F0007F1D86ED92E00E94EA12481230C0FFEFA0
:100A0000CF1ADF0A88E0C816D10461F705C098E064
:100A1000591611F00F5F1F4FA72CB62C6701FE016E
:100A200031964F013E01F9E06F0E711CF5014191C5
:100A30005F01B60186ED92E00E94ED12F401419152
:100A40004F01B601685F7F4F86ED92E00E94ED1284
:100A5000FFEFCF1ADF0A8614970441F704C080E144
:100A6000E80EF11CB8CFC8010E946804C70129969E
:100A70000FB6F894DEBF0FBECDBFDF91CF911F91AF
:100A80000F91FF90EF90DF90CF90BF90AF909F902D
:100A90008F907F906F905F904F900895CF93DF93EA
:100AA000CDB7DEB729970FB6F894DEBF0FBECDBF26
:100AB000BE016F5F7F4F0E948F04BE016F5F7F4F4B
:100AC00083E792E00E94CC1629960FB6F894DEBF19
:100AD0000FBECDBFDF91CF910895CF92DF92EF92FD
:100AE000FF920F931F93CF93DF9300D0CDB7DEB764
:100AF0006C018B0180913D0290E00A9760E270E00A
:100B00000E94241A8983E12CF12CD701B595A79571
:100B1000E981F0E0E25CFD4F20819FEB920F903184
:100B2000E0F09FEA920F9A30C0F080ED820F8A3099
:100B300018F496ED920F11C062E171E082EE92E03E
:100B40002A830E949D164AE050E02A81622F82EE9D
:100B500092E00E94A81780E01CC0AC0DBD1D8C91D6
:100B60008295807F892B8C930115110529F0808156
:100B7000F80180830F5F1F4FCE0101960E94790418
:100B8000FFEFEF1AFF0A88E0E816F10409F0BDCF85
:100B900081E00F900F90DF91CF911F910F91FF9007
:100BA000EF90DF90CF9008951F93CF93DF938FEF57
:100BB0000E9483048A30C1F58EEF0E9483048D3039
:100BC00099F584EF0E948304803371F585EF0E94CC
:100BD0008304C82F88E88C0F823040F5C6EFDFEF22
:100BE0008C2F0E948304182F8FEB810F8A3150F1D4
:100BF00080ED810F8A3030F161E371E082EE92E0A6
:100C00000E949D164AE050E0BE0182EE92E00E94F2
:100C100093176DE371E082EE92E00E949D16612FC2
:100C200082EE92E00E94DE1680E012C08FE98C0F07
:100C30008230A0F26FE371E082EE92E00E949D1696
:100C40006C2FEECF2196CE3F8FEFD80749F681E08B
:100C5000DF91CF911F910895EEE3F2E08DE2819351
:100C600092E0EE35F907D9F710923D020895CF9240
:100C7000DF92EF92FF926B017C0180E1C816D104F4
:100C8000E104F10494F06FE070E080E090E00E94F5
:100C9000D7150E94161380918A0384FD0FC08FE040
:100CA000C81AD108E108F108E8CFC701B6010E94CF
:100CB000D71580918A038295817001C081E0FF90F1
:100CC000EF90DF90CF900895CF93C82F8FE98C0FCE
:100CD0008A3120F463EA6C0F40E007C08FEB8C0F81
:100CE0008A3150F463EC6C0F42E080913B029091AA
:100CF0003C02CF910C9465038FEC8C0F893018F473
:100D00006DEE6C0F1CC0C03311F467E218C0CA331B
:100D100019F442E063E3E9CFCF3211F468E30FC086
:100D2000CE3211F467E30BC0CD3211F46DE207C08F
:100D3000C03211F46CE203C0CA3041F468E2809121
:100D40003B0290913C02CF910C9484036FE471E0DC
:100D500082EE92E00E949D166C2F772767FD7095BA
:100D60004AE050E082EE92E00E9493176DE371E05A
:100D700082EE92E00E949D16E091E202F091E30281
:100D80000190F081E02D6C2F82EE92E009956EE9E2
:100D900071E082EE92E0CF910C94CC16CF93DF936A
:100DA000EC018991882319F00E946406FACFDF9143
:100DB000CF9108950F931F93CF93DF938C018AE611
:100DC00091E00E94CE06C0E0D0E0BE01600F711F2E
:100DD00086ED92E00E94EA120E9464062196C031DC
:100DE000D10599F78DE991E0DF91CF911F910F9196
:100DF0000C94CE060F931F93CF93DF9361E083E0B3
:100E00000E94A01460E08BE00E94A01460E08AE0E1
:100E10000E94A01460E086E00E94A01460E085E0DB
:100E20000E94A01484E090E00E941518EC010E943A
:100E30004C03D0933C02C0933B0260E375E780E033
:100E400090E00E9437068823E9F16BEA70E082EEB9
:100E500092E00E94BA1664E670E080E090E00E94A2
:100E6000D7158FE691E00E94CE068FE991E00E94AF
:100E7000CE0682E692E00E94CE068DE991E00E94C5
:100E8000CE060E9450048C339105B0F48C0174E0BE
:100E9000000F111F7A95E1F7C0E0D0E0C017D1072D
:100EA00038F40E941613CE010E94DA066096F6CF3F
:100EB0008DE991E00E94CE0668EE73E080E090E05C
:100EC0000E94370657985F9880913B0290913C02B0
:100ED0000E94171860E083E0DF91CF911F910F917E
:100EE0000C94A014DF92EF92FF920F931F93CF9375
:100EF000DF93F89467EA71E082EE92E00E949D161B
:100F0000609166004AE050E082EE92E00E94A817ED
:100F1000C8E0D0E0F12CE0E8EE2EDE2CDF0CD09221
:100F200066000E9418028C010C3E88E018070CF441
:100F3000FD2CE694219789F78FEF8F0D8093660043
:100F4000CF2DD0E021968091660090E0C817D90798
:100F5000ACF00E9418028C5E984097FF03C09195F8
:100F600081959109801791071CF4F09066008C011F
:100F7000809166008F5F80936600E5CFF0926600F7
:100F80006AEB71E082EE92E00E949D16609166002D
:100F90004AE050E082EE92E00E94A8177894DF9138
:100FA000CF911F910F91FF90EF90DF900895EF92F6
:100FB000FF920F93E12CF12C01E020E049E068E082
:100FC00083E792E00E944B100F91FF90EF900895FD
:100FD00083E792E00C945811CF92DF92EF92FF9248
:100FE00010923D020E94A8156B017C010E94A81579
:100FF0006C197D098E099F09683873418105910537
:10100000E8F483E792E00E94BC0F892B79F383E731
:1010100092E00E94810F20913D0230E0F901E25CF4
:10102000FD4F8083C90101968F71992780933D02FE
:101030000E94D4058823D1F281E001C080E0FF90B6
:10104000EF90DF90CF900895CF93DF93CDB7DEB7C9
:1010500064970FB6F894DEBF0FBECDBF61E08BE0A2
:101060000E94A014198A1A8A1B8A1C8A1D861E8651
:101070001F86188A60E070E0CE0141960E946D05DF
:10108000811103C069E871E00FC061E08AE00E944D
:10109000A0140E94EC07882329F085EF0E948304A6
:1010A000813649F068E771E082EE92E00E94BA165C
:1010B0008FEF9FEF47C061E086E00E94A014BE0161
:1010C0006F5F7F4FCE010D960E946D05811103C0A9
:1010D0006CE571E0E9CF8D859E85AF85B8898987FC
:1010E0009A87AB87BC87CE0109960E94E20364E62B
:1010F00070E080E090E00E94D71569E571E083E739
:1011000092E00E947816CE0109960E944E0561E099
:1011100085E00E94A01489859A85AB85BC854989A4
:101120005A896B897C8984279527A627B7278987C1
:101130009A87AB87BC87BE01675F7F4FCE01019660
:101140000E94AE0464960FB6F894DEBF0FBECDBF0A
:10115000DF91CF910895CF93DF93CDB7DEB764973A
:101160000FB6F894DEBF0FBECDBF61E085E00E94F0
:10117000A014198A1A8A1B8A1C8ABE016F5F7F4FCE
:10118000CE0141960E946D05811103C06CE371E0B0
:101190003DC061E086E00E94A01489899A89AB89EC
:1011A000BC898D879E87AF87B88BCE010D960E9434
:1011B000E20364E670E080E090E00E94D71569E306
:1011C00071E083E792E00E947816CE010D960E94AE
:1011D0004E0564E670E080E090E00E94D71566E37B
:1011E00071E083E792E00E94781662E672E083E79E
:1011F00092E00E94CC160E94EC07882329F085EF2C
:101200000E948304823649F065E271E082EE92E04A
:101210000E94BA168FEF9FEF2EC061E08AE00E9415
:10122000A01419861A861B861C8660E070E0CE0129
:1012300009960E946D05811103C068E071E0E6CF58
:1012400061E08BE00E94A01489859A85AB85BC85FE
:101250004D855E856F85788984279527A627B727D2
:1012600089879A87AB87BC87BE01675F7F4FCE01B6
:1012700001960E94AE0464960FB6F894DEBF0FBECE
:10128000CDBFDF91CF9108950F931F93CF93DF933D
:101290008C0165EF71E082EE92E00E947816C0E06A
:1012A000D0E0BE01600F711F86ED92E00E94EA124D
:1012B000682F82EE92E00E944C192196C031D10530
:1012C00081F76EE971E082EE92E0DF91CF911F919C
:1012D0000F910C94CC161F93CF93DF9320913D0276
:1012E00030E0F901E25CFD4F8083C90101968F7106
:1012F000992780933D020E94D405882309F497C062
:1013000060E270E083E00E94FF1460E08BE00E94E6
:10131000A01460E08AE00E94A01460E086E00E94D1
:10132000A01460E085E00E94A01485EF0E94830471
:10133000883719F40E94AB0806C0893711F0C4E061
:1013400009C00E942408EC01CF3F8FEFD807B9F302
:1013500014E031C061E083E00E94A01464E670E014
:1013600080E090E00E94D71560E083E00E94A01426
:1013700064E670E080E090E00E94D715C15051F71C
:1013800068EE73E080E090E00E94D7150E942C0682
:1013900060E08BE00E94A01460E08AE00E94A0144C
:1013A00060E086E00E94A01460E085E0DF91CF91CC
:1013B0001F910C94A01461E083E00E94A0146CE2E1
:1013C00071E080E090E00E94D71560E270E083E079
:1013D0000E94FF146CE271E080E090E00E94D7155B
:1013E000115049F760E083E00E94A01468EE73E0BA
:1013F00080E090E00E94D7150E942C0660E08BE010
:101400000E94A01460E08AE00E94A01460E086E0E0
:101410000E94A01460E085E00E94A014CE010E940A
:101420004409CE01DF91CF911F910C94550CDF91AF
:10143000CF911F9108958F929F92AF92BF92CF92BA
:10144000DF92EF92FF925C010E94A8156B017C0174
:10145000C501AA2797FDA095BA2FC80ED91EEA1E6E
:10146000FB1E0E94A8156C157D058E059F0568F56D
:101470008CE00E94D614892BD9F40E94A8154B0148
:101480005C018CE00E94D614892B61F40E94A8159F
:10149000681979098A099B09613D774081059105A1
:1014A00080F306C089288A288B2811F00E94FA064A
:1014B00083E792E00E94BC0F892B99F283E792E0C8
:1014C0000E94810F0E946B09CCCFFF90EF90DF90BC
:1014D000CF90BF90AF909F908F9008952F923F92A2
:1014E0004F925F926F927F928F929F92AF92BF9234
:1014F000CF92DF92EF92FF920F931F93CF93DF93E0
:10150000CDB7DEB7E2970FB6F894DEBF0FBECDBF02
:10151000182FB62E9E2C3C2C28962FAC28972A9656
:101520006EAC7FAC2A972C966EAD7FAD2C977E8BE0
:101530006D8B2AAB49AB0E94A8156B017C0123017E
:10154000662457FC6094762CDC01CB01840D951D3C
:10155000A61DB71D89879A87AB87BC87AB2DB0E0E6
:10156000BE87AD87612F70E0A61BB70BBE8FAD8F16
:101570002AA9E22FF0E0F88BEF8749A950E0E41B9D
:10158000F50BFA83E983292D30E03A8B298B10E0A3
:10159000201B310B3E832D838A2D90E09C8B8B8BFF
:1015A000A32DB0E0BCA7ABA78A1B9B0B98A78FA36A
:1015B000312CE82DF0E0F88FEF8B91012E1B3F0BC3
:1015C0008D889E88AA2497FCA094BA2C89859A8538
:1015D000AB85BC8588199909AA09BB09898F9A8F9F
:1015E000AB8FBC8F8D8C9E8CAA2497FCA094BA2CB8
:1015F0008D8E9E8EAF8EB8A27AA369A389809A80C1
:10160000AA2497FCA094BA2C89829A82AB82BC82CD
:101610005CA34BA38D809E80AA2497FCA094BA2C37
:101620008D829E82AF82B8861EA30DA38FA098A440
:10163000AA2497FCA094BA2C8FA298A6A9A6BAA611
:101640004901AA2497FCA094BA2C8DA69EA6AFA609
:10165000B8AA8F010E94A815898C9A8CAB8CBC8C7F
:10166000681579058A059B0508F06BC00E94A815CE
:101670004B015C018C189D08AE08BF082D8D3E8D76
:101680004F8D58A1C501B4010E94141AA301920103
:101690000E945A1A69A17AA1620F731F83E00E9407
:1016A000FF1429813A814B815C81C501B4010E94FC
:1016B000141AA30192010E945A1A6BA17CA1620F15
:1016C000731F8BE00E94FF142D813E814F8158854E
:1016D000C501B4010E94141AA30192010E945A1A72
:1016E0006DA17EA1620F731F8AE00E94FF142FA1DB
:1016F00038A549A55AA5C501B4010E94141AA30131
:1017000092010E945A1A6BA57CA5620F731F86E096
:101710000E94FF142DA53EA54FA558A9C501B401EF
:101720000E94141AA30192010E945A1AB801620F72
:10173000731F85E00E94FF148D899E890E941B0AF9
:1017400089CF6D857E8583E00E94FF146F8578893F
:101750008BE00E94FF1469897A898AE00E94FF1455
:101760006B897C8986E00E94FF14B10185E00E94AC
:10177000FF140E94A81589859A85861B970BE2960F
:101780000FB6F894DEBF0FBECDBFDF91CF911F9192
:101790000F91FF90EF90DF90CF90BF90AF909F9010
:1017A0008F907F906F905F904F903F902F900C9410
:1017B0001B0ACF93DF93803229F4E7E1F2E0E49152
:1017C00080E020C0803419F4E8E1F2E0F8CF9FEB2C
:1017D000980F9A3128F4E82FF0E0E454FE4FEFCF51
:1017E00061E083E00E94A01486EA9EE00E941B0A4A
:1017F00060E083E0DF91CF910C94A0148F5FEE0F37
:10180000883011F0E7FFFACFC1E0C80FDE2FDD0FFF
:10181000C830B8F561E083E00E94A01461E08BE07D
:101820000E94A014D7FF0FC061E08AE00E94A014BC
:1018300061E086E00E94A01461E085E00E94A014AF
:101840008EEE92E002C08AEF90E00E941B0A60E0F8
:1018500083E00E94A01460E08BE00E94A01460E08E
:101860008AE00E94A01460E086E00E94A01460E07C
:1018700085E00E94A0148AEF90E00E941B0ACF5FCF
:10188000C6CF88EE93E0DF91CF910C941B0ACF93E3
:10189000DF93EC018991882329F00E94D90B0E94E3
:1018A0009403F8CFDF91CF9108950F931F93CF93B7
:1018B000DF938C018CEC91E00E94470CC0E0D0E0FB
:1018C000BE01600F711F86ED92E00E94EA120E9435
:1018D000D90B2196C830D10599F7DF91CF911F918F
:1018E0000F9108950F931F93CF93DF9326E040E06D
:1018F00052EC61E070E082EE92E00E94B1194CE29D
:1019000051E060E070E083E792E00E94871083E797
:1019100092E00E94EA0F60E089E00E94A01461E07A
:1019200083E00E94671460E083E00E94A01461E0FD
:101930008BE00E94671460E08BE00E94A01461E0DD
:101940008AE00E94671460E08AE00E94A01461E0CF
:1019500086E00E94671460E086E00E94A01461E0C7
:1019600085E00E94671460E085E00E94A01460E0BA
:101970008CE00E94671461E08CE00E94A01468EC87
:1019800070E080E090E00E94D7150E94A815609357
:101990005E0270935F0280936002909361020E94E6
:1019A0002C0602E612E0C4EFD3E0BE0186ED92E021
:1019B0000E94EA12F80181938F012196CC3FF3E057
:1019C000DF0799F710926A026CEE73E086ED92E001
:1019D0000E94EA12C82F6DEE73E086ED92E00E943D
:1019E000EA122C2F30E0322F2227280F311D30939E
:1019F0006C0220936B026EEE73E086ED92E00E9423
:101A0000EA12C82F6FEE73E086ED92E00E94EA12B0
:101A10002C2F30E0322F2227280F311D30936E02F9
:101A200020936D0260EF73E086ED92E00E94EA126F
:101A3000C82F61EF73E086ED92E00E94EA122C2F2E
:101A400030E0322F2227280F311D3093700220936F
:101A50006F0262EF73E086ED92E00E94EA12C82FF7
:101A600063EF73E086ED92E00E94EA122C2F30E0E3
:101A7000322F2227280F311D3093720220937102DA
:101A80006CEF73E086ED92E00E94EA12837080931F
:101A90003A02482F50E04F5F5F4F437055276CEF7D
:101AA00073E086ED92E00E94ED1280913A0281117E
:101AB00008C062E970E082EE92E00E94BA1685E406
:101AC00009C0813051F467E870E082EE92E00E9434
:101AD000BA1689E40E94D90B5FC0823041F469E7ED
:101AE00070E082EE92E00E94BA1683E5F3CF833075
:101AF00009F052C068E670E082EE92E00E94BA16E9
:101B000061E083E00E94A0146EEE72E080E090E05D
:101B10000E94D71560E083E00E94A0146AEF70E095
:101B200080E090E00E94D71561E083E00E94A0145D
:101B30006EEE72E080E090E00E94D71560E083E0F6
:101B40000E94A0146AEF70E080E090E00E94D71538
:101B500060E083E00E94A01460E08BE00E94A0148B
:101B600060E08AE00E94A01460E086E00E94A01479
:101B700060E085E00E94A01460E08CE00E94A01468
:101B800083B7817F846083BFF89483B7816083BF0C
:101B9000889583B78E7F83BF64E670E080E090E035
:101BA000DF91CF911F910F910C94D7150F931F9335
:101BB000CF93DF930E945004EC0163EF70E082EE5C
:101BC00092E00E9478164AE050E0BE0182EE92E078
:101BD0000E94BF1764EC70E082EE92E00E94BA1699
:101BE00069EB70E082EE92E00E94781662E672E0A5
:101BF00082EE92E00E94CC16CC33D105D0F48E0157
:101C0000D4E0000F111FDA95E1F7C0E0D0E0C01773
:101C1000D10728F4CE010E9444096096F8CF6EE9FE
:101C200071E082EE92E0DF91CF911F910F910C94C1
:101C3000CC16DF91CF911F910F9108953F924F9253
:101C40005F926F927F928F929F92AF92BF92CF924C
:101C5000DF92EF92FF920F931F93CF93DF930E9437
:101C6000D60D80913A02811125C086ED91E00E9447
:101C7000470C82E692E00E94470C85EE91E00E94BC
:101C8000470C0E9450048C33910508F028C13C0198
:101C9000E4E0660C771CEA95E1F7C0E0D0E0C615F9
:101CA000D70508F01CC10E94D60DCE010E94550C2C
:101CB0006096F5CF813009F048C06AE0D62E1AE070
:101CC000D6E0C0E47CE7F72E0E94A8152B013C016A
:101CD0001F921F93DF93CF93FF92812C2CE7A22EAC
:101CE000C12C3CE7E32E00E02CE740E068EF80E009
:101CF0000E946E0A1F921F93DF93CF931F924CE7AF
:101D0000842EA12C5CE7C52EE12C0CE720E04CE7EB
:101D100060E088EF0E946E0A0E9494030E94A8155A
:101D200028E7421A2CEE520AC201861B970B0E942A
:101D30001B0ADA948DB79EB70A960FB6F8949EBF29
:101D40000FBE8DBFD110C0CFCAC0823009F0B1C064
:101D500014E1CAE0DCE3DD2ED8E7FF24F3940CE2C3
:101D6000302E84E6982E94EFB92E0E94A8152B01F0
:101D70003C011F92CF931F92DF921F92812CA12CC6
:101D8000C12CE12C00E020E040E068EC80E00E9403
:101D90006E0A1F92CF931F92DF931F9220E040E0C4
:101DA00060E088EC0E946E0A88EC90E00E941B0ABA
:101DB0001F92CF931F92DF921F9220E040E06AEFC4
:101DC00080E00E946E0A1F92CF931F92DF931F92B2
:101DD0008AEFA82E9AEFE92E20E040E060E08AEF3B
:101DE0000E946E0A1F92CF931F92DF938AEF8F9308
:101DF00026E9A22E3AEFC32E46E9E42E0AEF2AEF97
:101E000040E060E080E00E946E0A1F92CF931F9234
:101E1000DF9386E98F935AEF852E62E3A62E76E94B
:101E2000C72EE2E3EE2E06E926E94AEF60E080E005
:101E30000E946E0A1F92CF93FF923F929F92F6E903
:101E40008F2EA12CA2E3CA2EE12C02E324E646E960
:101E500060E080E00E946E0A8DB79EB783960FB651
:101E6000F8949EBF0FBE8DBF1F92CF93FF92BF927B
:101E70001F92B4E68B2EC12C00E020E044E660E027
:101E800080E00E946E0A0E9494030E94A81520E33D
:101E9000421A28EF520AC201861B970B0E941B0AA6
:101EA00011500F900F900F900F900F9009F05DCF91
:101EB00016C08330A1F483E4DF91CF911F910F917D
:101EC000FF90EF90DF90CF90BF90AF909F908F905A
:101ED0007F906F905F904F903F900C94D90BDF9163
:101EE000CF911F910F91FF90EF90DF90CF90BF9017
:101EF000AF909F908F907F906F905F904F903F90AA
:101F000008952091D4023091D50228173907B9F4E9
:101F10009091920280919302981789F0E091920239
:101F2000F0E0EC56FD4F80812091920230E02F5F6F
:101F30003F4F2F7333272093920290E008958FEF45
:101F40009FEF08952091D4023091D50228173907C8
:101F500081F49091920280919302981751F0E09150
:101F60009202F0E0EC56FD4F8081992787FD909515
:101F700008958FEF9FEF08952091D4023091D502FC
:101F80002817390771F4809193022091920290E012
:101F9000805C9F4F821B910960E470E00E94241ACC
:101FA000089580E090E008952091D4023091D50208
:101FB0002817390739F48FB7F894109293021092CA
:101FC00092028FBF089520E001972FEF8F3F920775
:101FD000D9F708952091D4023091D50228173907F6
:101FE00089F0FC01258D2E7F258F2FB7F894109254
:101FF0009302109292029093D5028093D4022FBF45
:1020000081E0089580E008951F93CF93DF93EC0162
:10201000162F61E0812F0E94671461E0812F0E94DA
:10202000A014812F90E0FC01E25AFC4FE491E88B70
:10203000FC01EE58FC4FE491F0E0EE0FFF1FE0577B
:10204000FC4F859194919A8B898BDF91CF911F9151
:1020500008951F93CF93DF93EC01162F60E0812F3B
:102060000E9467141C87612F70E0FB01E25AFC4F4D
:10207000E491ED87FB01EE58FC4FE491F0E0EE0FA8
:10208000FF1FEA57FC4F859194919F878E87DF91C0
:10209000CF911F910895CF92DF92EF92FF920F930D
:1020A0001F93CF93DF93EC01162FC7011B821A8277
:1020B00038EEC32E33E0D32EE12CF12CCC82DD821E
:1020C000EE82FF82EEE1F2E0F983E8831C8A1B8A4C
:1020D0001E8A1D8A188E1F8A1A8E198E9C8F8B8FCE
:1020E0008D8D8E7F20FB81F900FB82F98D8F642F0F
:1020F000CE010E940410612FCE01DF91CF911F917C
:102100000F91FF90EF90DF90CF900C9429100F93D8
:102110001F93CF93DF93EC011A8E198E188E1F8AAE
:102120001E8A1D8AACE3B2E080E090E0FD010591DB
:10213000159125913491041715072607370709F0E3
:1021400031C02CE0289FF001299FF00D1124E05CA4
:10215000FD4F259134913C8B2B8B2CE0289FF00177
:10216000299FF00D1124EE5BFD4F259134913E8B9C
:102170002D8B2CE0289FF001299FF00D1124EC5BA2
:10218000FD4F25913491388F2F8B2CE0289FF00143
:10219000299FF00D1124EA5BFD4F859194919A8F50
:1021A000898F08C001961C968C30910509F0BECF2E
:1021B0001C8A1B8A8F89988D892B09F443C08C85D2
:1021C0008631E0F520916800883050F091E08E3043
:1021D00008F490E081E001C0880F9A95EAF701C009
:1021E00084E0822B809368002C85283038F02E30D4
:1021F00040F0263148F0E0E0F0E008C0EDE6F0E025
:1022000005C0EBE6F0E002C0ECE6F0E030812830FB
:1022100030F481E001C0880F2A95EAF70DC0822FC3
:1022200090E02E3010F4089701C00E9791E001C0A5
:10223000990F8A95EAF7892F832B8083898D9A8D50
:102240000E94E30FCE01DF91CF911F910F910C946B
:10225000EA0FFC014485463150F5483028F04E30F5
:1022600030F4EBE6F0E005C0EDE6F0E002C0ECE6AD
:10227000F0E05081483040F481E090E0042E01C04D
:10228000880F0A94EAF710C0242F30E04E3018F47B
:102290002850310902C02E50310981E090E0022E11
:1022A00001C0880F0A94EAF78095852380830895FA
:1022B0002EE132E0FC01318320830C94291170E07F
:1022C000FC01858D82FB222720F930E0809180007F
:1022D0008F736217730709F08068809380000895F8
:1022E0005F926F927F928F929F92AF92BF92CF92A6
:1022F000DF92EF92FF920F931F93CF93DF93EC0146
:10230000662E898D9A8D892B39F481E090E09B832C
:102310008A8380E090E06DC09FB6F8947090800052
:1023200080908100A0908400B0908500C0908800CB
:10233000D0908900E0908600F09087008091800026
:10234000887382688093800080918100807E89619B
:1023500080938100109285001092840082ED90E0BD
:10236000909389008093880085EA91E0909387009C
:102370008093860060E0CE010E945F11898D9A8D66
:1023800005960E94E30F08E010E055245394852D34
:10239000862111F061E001C060E0CE010E945F1172
:1023A000898D9A8D0E94E30F550C0150110979F720
:1023B00061E0CE010E945F117092800080928100E6
:1023C000B0928500A0928400D0928900C0928800CB
:1023D000F0928700E0928600898D9A8D0E94E30F2B
:1023E0009FBE62E070E080E090E00E94D71581E03F
:1023F00090E0DF91CF911F910F91FF90EF90DF90D0
:10240000CF90BF90AF909F908F907F906F905F9094
:102410000895EF92FF920F931F93CF93DF93EC01F8
:10242000EE85FF8580819D8589239D8D91FF03C069
:10243000811103C053C0811151C0E091E202F091BB
:10244000E3020190F081E02D6EE282EE92E00995C8
:102450008B899C890E94E30F08E010E0EE24E3944E
:10246000F12C8D899E890E94E30FEE85FF85808186
:102470009D85892311F0FE2803C08E2D8095F822BA
:10248000EE0C0150110969F78F89988D0E94E30FB6
:102490008D8D81FDF0946F2D82EE92E00E944C199B
:1024A000809193022091920290E001968F73992778
:1024B00030E08217930779F0E0919302F0E0EC5658
:1024C000FD4FF0828091930290E001968F739927DF
:1024D0008093930203C08D8D81608D8FDF91CF91AA
:1024E0001F910F91FF90EF9008958091D4029091E9
:1024F000D502009711F00C94091208951F920F92C3
:102500000FB60F9211242F933F934F935F936F93C6
:102510007F938F939F93AF93BF93EF93FF930E940B
:102520007512FF91EF91BF91AF919F918F917F9124
:102530006F915F914F913F912F910F900FBE0F9030
:102540001F9018951F920F920FB60F9211242F9380
:102550003F934F935F936F937F938F939F93AF932B
:10256000BF93EF93FF930E947512FF91EF91BF917C
:10257000AF919F918F917F916F915F914F913F911B
:102580002F910F900FBE0F901F9018951F920F92D2
:102590000FB60F9211242F933F934F935F936F9336
:1025A0007F938F939F93AF93BF93EF93FF930E947B
:1025B0007512FF91EF91BF91AF919F918F917F9194
:1025C0006F915F914F913F912F910F900FBE0F90A0
:1025D0001F901895CB010C94311CCB01642F0C94E7
:1025E000391CCF93C62F20918A0324FF07C0209166
:1025F0008B0338E8232720938B0303C02AE520931D
:102600008A03DC01ECE8F3E09C2F9E0F8D9181930F
:10261000892F8E1B1816D4F36C2F8CE893E00E9440
:102620001402CC5FC0938A03CF910895CF93DF93B8
:1026300080919B03835087FDA9C0909198032091BE
:1026400097032D3209F0A0C0883009F09DC0CCE07E
:10265000D0E0C91BD109C156DC4F83EC80937F03C6
:102660008AE580930B011092D8028881807621F050
:10267000CE010E9487037FC09A81109288038981CE
:10268000811106C01092890328E833E082E06FC010
:10269000853019F490939C0367C0863009F04EC0D2
:1026A0008B81813041F48EEE92E090939A03809377
:1026B000990382E13FC0823041F48CEC92E0909328
:1026C0009A038093990382E235C08330F1F491112B
:1026D00008C086E493E090939A038093990384E082
:1026E00029C0913041F480E393E090939A03809362
:1026F000990386E11FC09230E1F480E093E090936B
:102700009A038093990380E315C0813241F48EEDE2
:1027100092E090939A038093990389E00BC08232F0
:1027200041F489E192E090939A038093990383E2C4
:1027300001C080E090E49093D8021DC0883069F019
:10274000893019F490939E030FC08A3049F08B3082
:1027500059F48BE480938B0307C02EE933E002C069
:1027600028E833E081E003C028E833E080E03093DC
:102770009A03209399039F81911104C09E81981719
:1027800008F4892F80930A0110929B0380910B011A
:1027900084FF4DC080910A018F3F09F448C0C82FC3
:1027A000893008F0C8E08C1B80930A0180917F0378
:1027B00098E8892780937F03CC2361F18091990366
:1027C00090919A032091D80226FF12C0A0E8B3E0AE
:1027D0002FE733E020953095280F391F4C2F4A0FF3
:1027E000F901EA0FFB1FE491ED934A13F9CF09C0F9
:1027F000E0E8F3E0DC012C2F2E0F3D9131932E13F6
:10280000FCCF01962FEF2C0F820F911D90939A030E
:10281000809399036C2F80E893E00E941402CC5FB0
:10282000CC3019F08FEF80930A01C0930B0184E143
:1028300099B1947131F48150D9F710929C031092A0
:102840009603C1E08111C0E08091D7028C1731F06E
:10285000C11102C00E947207C093D702DF91CF91CD
:102860000895E9E6F0E0808182608083E89A8BE455
:1028700080938B038AE580938A030895833081F0E7
:1028800028F4813099F08230A1F008958730A9F0C2
:102890008830B9F08430D1F4809180008F7D03C0FE
:1028A000809180008F7780938000089584B58F7722
:1028B00002C084B58F7D84BD08958091B0008F776C
:1028C00003C08091B0008F7D8093B0000895CF93B6
:1028D000DF9390E0FC01E25AFC4F2491FC01EE589A
:1028E000FC4F8491882349F190E0880F991FFC01E7
:1028F000E656FC4FA591B49180579C4FFC01C591C1
:10290000D4919FB7611108C0F8948C9120958223CF
:102910008C93888182230AC0623051F4F8948C91A0
:10292000322F309583238C938881822B888304C037
:10293000F8948C91822B8C939FBFDF91CF91089557
:102940000F931F93CF93DF931F92CDB7DEB7282F3E
:1029500030E0F901E65BFC4F8491F901E25AFC4F4B
:102960001491F901EE58FC4F04910023C9F088231B
:1029700021F069830E943E146981E02FF0E0EE0FA0
:10298000FF1FE057FC4FA591B4919FB7F8948C912D
:10299000611103C01095812301C0812B8C939FBFCF
:1029A0000F90DF91CF911F910F910895CF93DF93F7
:1029B000282F30E0F901E65BFC4F8491F901E25ADF
:1029C000FC4FD491F901EE58FC4FC491CC2391F007
:1029D00081110E943E14EC2FF0E0EE0FFF1FEA572A
:1029E000FC4FA591B4912C912D2381E090E021F42E
:1029F00080E002C080E090E0DF91CF9108951F93C6
:102A0000CF93DF93182FEB0161E00E9467142097AA
:102A100011F460E004C0CF3FD10539F461E0812FAB
:102A2000DF91CF911F910C94A014E12FF0E0E65BB1
:102A3000FC4FE491E330F9F048F4E130B9F0E230D2
:102A4000A1F584B5806284BDC8BD34C0E730E9F02B
:102A5000E83019F1E43049F580918000806280937C
:102A60008000D0938B00C0938A0024C084B5806816
:102A700084BDC7BD1FC080918000806880938000A6
:102A8000D0938900C093880015C08091B000806801
:102A90008093B000C093B3000DC08091B0008062FD
:102AA0008093B000C093B40005C0C038D1050CF0CD
:102AB000B5CFAFCFDF91CF911F9108951F920F92A5
:102AC0000FB60F9211242F933F938F939F93AF9341
:102AD000BF938091DA029091DB02A091DC02B09169
:102AE000DD023091D90223E0230F2D3720F4019627
:102AF000A11DB11D05C026E8230F0296A11DB11D21
:102B00002093D9028093DA029093DB02A093DC0237
:102B1000B093DD028091DE029091DF02A091E0028D
:102B2000B091E1020196A11DB11D8093DE02909348
:102B3000DF02A093E002B093E102BF91AF919F91B9
:102B40008F913F912F910F900FBE0F901F9018956E
:102B50002FB7F8946091DA027091DB028091DC0269
:102B60009091DD022FBF08953FB7F8948091DE0267
:102B70009091DF02A091E002B091E10226B5A89BFE
:102B800005C02F3F19F00196A11DB11D3FBF66275B
:102B9000782F892F9A2F620F711D811D911D42E0A0
:102BA000660F771F881F991F4A95D1F70895CF9216
:102BB000DF92EF92FF92CF93DF936B017C010E9433
:102BC000B415EB01C114D104E104F10489F00E94B1
:102BD000131A0E94B4156C1B7D0B683E734090F372
:102BE00081E0C81AD108E108F108C851DC4FEACFEA
:102BF000DF91CF91FF90EF90DF90CF900895789480
:102C000084B5826084BD84B5816084BD85B58260F1
:102C100085BD85B5816085BDEEE6F0E0808181608F
:102C20008083E1E8F0E0108280818260808380818F
:102C300081608083E0E8F0E0808181608083E1EB67
:102C4000F0E0808184608083E0EBF0E0808181604F
:102C50008083EAE7F0E08081846080838081826005
:102C600080838081816080838081806880831092EE
:102C7000C1000895CF92DF92EF92FF920F931F93BE
:102C8000CF93DF936C017A01EB01E60EF71E00E0B3
:102C900010E0CE15DF0561F06991D601ED91FC9150
:102CA0000190F081E02DC6010995080F191FF1CFA1
:102CB000C801DF91CF911F910F91FF90EF90DF90AE
:102CC000CF9008956115710581F0DB010D90002012
:102CD000E9F7AD0141505109461B570BDC01ED915D
:102CE000FC910280F381E02D099480E090E008954A
:102CF000EF92FF920F931F93CF93DF938C01FB0111
:102D0000C0E0D0E064917F018FEFE81AF80A6623F3
:102D100061F0D801ED91FC910190F081E02DC801A6
:102D20000995C80FD91FF701EDCFCE01DF91CF91E3
:102D30001F910F91FF90EF9008950C946216DC01A3
:102D4000ED91FC910190F081E02D09940F931F9378
:102D5000CF93DF93EC016DE00E949F168C016AE037
:102D6000CE010E949F16800F911FDF91CF911F917E
:102D70000F9108950F931F93CF93DF93EC010E945F
:102D800078168C01CE010E94A616800F911FDF914C
:102D9000CF911F910F9108950F931F93CF93DF93BE
:102DA000EC010E9462168C01CE010E94A616800FD3
:102DB000911FDF91CF911F910F9108950F931F9352
:102DC000CF93DF93EC010E949F168C01CE010E94ED
:102DD000A616800F911FDF91CF911F910F9108953B
:102DE0008F929F92AF92BF92CF92DF92EF92FF921B
:102DF0000F931F93CF93DF93CDB7DEB7A1970FB695
:102E0000F894DEBF0FBECDBF7C01C42EE52FCB01F1
:102E1000D22E19A221E02D1510F02AE0D22E8E011B
:102E20000F5D1F4F8D2C912CA12CB12C6C2D7E2F62
:102E3000A50194010E94381A8C2DD29E801911246C
:102E4000015011098A3014F4805D01C0895CF801D9
:102E50008083211531054105510521F0C22EE32F54
:102E6000CA01E4CFB801C7010E946216A1960FB64D
:102E7000F894DEBF0FBECDBFDF91CF911F910F91B0
:102E8000FF90EF90DF90CF90BF90AF909F908F908A
:102E90000895CF92DF92EF92FF920F931F93CF93FB
:102EA000DF93EC016A017B012115310579F4E8819A
:102EB000F9810190F081E02D642FDF91CF911F9176
:102EC0000F91FF90EF90DF90CF9009942A30310559
:102ED000E9F477FF1AC06DE20E949F168C01442727
:102EE0005527BA014C195D096E097F092AE0CE0108
:102EF0000E94F016800F911FDF91CF911F910F91CB
:102F0000FF90EF90DF90CF9008952AE0B701A601DF
:102F1000CE01DF91CF911F910F91FF90EF90DF9045
:102F2000CF900C94F0169A01AB01662757FD60957F
:102F3000762F0C9449172115310541F4DC01ED91F0
:102F4000FC910190F081E02D642F09940C94F0160F
:102F50000F931F93CF93DF93EC019A01462F50E01C
:102F600060E070E00E949B178C01CE010E94A616C3
:102F7000800F911FDF91CF911F910F9108950F93B3
:102F80001F93CF93DF93EC019A01AB0160E070E0F7
:102F90000E949B178C01CE010E94A616800F911FE4
:102FA000DF91CF911F910F910895CF93DF9300D0C0
:102FB00000D0CDB7DEB79B01AC016115710581056D
:102FC000910569F069833A834B835C830E94231CDB
:102FD00029813A814B815C810E945A1A03C060E0CA
:102FE00070E0CB010F900F900F900F90DF91CF9179
:102FF0000895CF92DF92EF92FF926B017C016217EE
:1030000073078407950764F4CA01B9016C197D0937
:103010008E099F090E94D5176C0D7D1D8E1D9F1D69
:10302000FF90EF90DF90CF9008950C94AD1A0C9420
:10303000451B1F920F920FB60F9211242F938F935F
:103040009F93EF93FF93E091F202F091F30280815E
:10305000E091F802F091F90282FD12C09081809116
:10306000FB028F5F8F732091FC02821751F0E09179
:10307000FB02F0E0EE51FD4F958F8093FB0201C003
:103080008081FF91EF919F918F912F910F900FBEB3
:103090000F901F9018951F920F920FB60F92112448
:1030A0002F933F934F935F936F937F938F939F9350
:1030B000AF93BF93EF93FF9382EE92E00E940919C2
:1030C000FF91EF91BF91AF919F918F917F916F9100
:1030D0005F914F913F912F910F900FBE0F901F90D6
:1030E000189582EE92E00E94CE1821E0892B09F417
:1030F00020E0822F08951092E5021092E40288EEFB
:1031000093E0A0E0B0E08093E6029093E702A09302
:10311000E802B093E9028EE292E09093E30280939A
:10312000E20285EC90E09093EF028093EE0284EC53
:1031300090E09093F1028093F00280EC90E0909305
:10314000F3028093F20281EC90E09093F502809379
:10315000F40282EC90E09093F7028093F60286EC02
:1031600090E09093F9028093F8021092FB02109283
:10317000FC021092FD021092FE02089508950E9432
:10318000FF150E94BE180E94720CCBEFD8E10E947E
:103190001E0E2097E1F30E94FB18F9CFFC01818DF0
:1031A000228D90E0805C9F4F821B91098F7399273D
:1031B0000895FC01918D828D981731F0828DE80F72
:1031C000F11D858D90E008958FEF9FEF0895FC012C
:1031D000918D828D981761F0828DDF01A80FB11D4E
:1031E0005D968C91928D9F5F9F73928F90E0089572
:1031F0008FEF9FEF089581E798E1892B49F080E0F8
:1032000090E0892B29F00E94711881110C94000024
:103210000895FC01848DDF01A80FB11DA35ABF4F93
:103220002C91848D90E001968F739927848FA689C5
:10323000B7892C93A089B1898C9180648C93938DEC
:10324000848D981306C00288F389E02D80818F7DDC
:1032500080830895CF93DF93EC01888D8823C9F094
:10326000EA89FB89808185FD05C0A889B9898C918F
:1032700086FD0FC00FB607FCF5CF808185FFF2CF2A
:10328000A889B9898C9185FFEDCFCE010E940919DB
:10329000E7CFDF91CF910895CF92DF92FF920F9306
:1032A0001F93CF93DF931F92CDB7DEB76C01DC0184
:1032B0005B969C915B975C968C915C97981307C08A
:1032C0005096ED91FC915197808185FD32C0F601B9
:1032D000038D10E00F5F1F4F0F731127F02EF601C3
:1032E000848DF81211C00FB607FCF9CFD6015096A5
:1032F000ED91FC915197808185FFF1CFC6016983E3
:103300000E9409196981EBCF838DE80FF11DE35A03
:10331000FF4F6083D6015B960C935B975296ED91BD
:10332000FC91539780818062808381E058968C93D2
:103330000DC0D6015696ED91FC915797608350963B
:10334000ED91FC91519780818064808381E090E0D1
:103350000F90DF91CF911F910F91FF90DF90CF9051
:103360000895BF92CF92DF92EF92FF92CF93DF93B7
:10337000EC016A017B01B22EE889F98982E0808341
:10338000411581EE580761057105A1F060E079E013
:103390008DE390E0A70196010E94381A215031096F
:1033A000410951095695479537952795211580E193
:1033B000380798F0E889F989108260E874E88EE1AE
:1033C00090E0A70196010E94381A21503109410965
:1033D00051095695479537952795EC85FD8530839E
:1033E000EE85FF852083188EEC89FD89B082EA89FD
:1033F000FB89808180618083EA89FB898081886084
:103400008083EA89FB89808180688083EA89FB89DF
:1034100080818F7D8083DF91CF91FF90EF90DF904F
:10342000CF90BF9008950895DB018F939F930E94E2
:10343000791ABF91AF91A29F800D911DA39F900D0E
:10344000B29F900D1124089597FB072E16F4009457
:1034500007D077FD09D00E94841A07FC05D03EF4FE
:10346000909581959F4F0895709561957F4F089530
:10347000A1E21A2EAA1BBB1BFD010DC0AA1FBB1F78
:10348000EE1FFF1FA217B307E407F50720F0A21BEA
:10349000B30BE40BF50B661F771F881F991F1A9457
:1034A00069F760957095809590959B01AC01BD0181
:1034B000CF010895052E97FB1EF400940E94711A07
:1034C00057FD07D00E94381A07FC03D04EF40C9425
:1034D000711A50954095309521953F4F4F4F5F4F52
:1034E000089590958095709561957F4F8F4F9F4F70
:1034F00008950E949E1AA59F900DB49F900DA49FC1
:10350000800D911D11240895AA1BBB1B51E107C01A
:10351000AA1FBB1FA617B70710F0A61BB70B881F63
:10352000991F5A95A9F780959095BC01CD010895F2
:10353000EE0FFF1F0590F491E02D0994A29FB001BA
:10354000B39FC001A39F700D811D1124911DB29FD7
:10355000700D811D1124911D0895CF93DF9382304A
:10356000910510F482E090E0E091B703F091B80388
:1035700020E030E0A0E0B0E0309739F140815181A7
:1035800048175907B8F04817590771F48281938199
:10359000109729F013969C938E9312972CC09093BA
:1035A000B8038093B70327C02115310531F04217C6
:1035B000530718F0A901DB0101C0EF019A01BD0119
:1035C000DF010280F381E02DD7CF21153105F9F01D
:1035D000281B390B2430310580F48A819B816115C9
:1035E000710521F0FB019383828304C09093B8039B
:1035F0008093B703FE01329644C0FE01E20FF31F31
:103600008193919322503109398328833AC02091C4
:10361000B5033091B603232B41F420910201309180
:1036200003013093B6032093B5032091000130913C
:1036300001012115310541F42DB73EB74091040138
:1036400050910501241B350BE091B503F091B603B1
:10365000E217F307A0F42E1B3F0B2817390778F069
:10366000AC014E5F5F4F2417350748F04E0F5F1FC8
:103670005093B6034093B5038193919302C0E0E069
:10368000F0E0CF01DF91CF910895CF93DF930097C2
:1036900009F487C0FC01329713821282C091B703EC
:1036A000D091B803209781F420813181280F391FF0
:1036B0008091B5039091B6038217930779F5F09343
:1036C000B603E093B5036DC0DE0120E030E0AE1735
:1036D000BF0750F412964D915C9113979D014115CF
:1036E000510509F1DA01F3CFB383A28340815181FF
:1036F000840F951F8A179B0771F48D919C911197E8
:10370000840F951F02969183808312968D919C91D0
:103710001397938382832115310529F4F093B8031D
:10372000E093B7033EC0D9011396FC93EE93129732
:103730004D915D91A40FB51FEA17FB0779F48081C5
:103740009181840F951F0296D90111969C938E93B7
:103750008281938113969C938E931297E0E0F0E020
:103760008A819B81009719F0FE01EC01F9CFCE010F
:10377000029628813981820F931F2091B5033091E1
:10378000B6032817390769F4309729F41092B80363
:103790001092B70302C013821282D093B603C09373
:1037A000B503DF91CF9108958F929F92AF92BF9210
:1037B000CF92DF92EF92FF92CF93DF93EC0168817B
:1037C00079818A819B81611571058105910521F4BB
:1037D00064E279ED8BE597E02DE133EF41E050E0D5
:1037E0000E945A1A49015A019B01AC01A7EAB1E4AF
:1037F0000E94791A6B017C01ACEEB4EFA501940133
:103800000E944A1CC60ED71EE81EF91EF7FE06C00F
:1038100081E0C81AD108E10880E8F80AC882D98294
:10382000EA82FB82C701B6019F77DF91CF91FF90BB
:10383000EF90DF90CF90BF90AF909F908F900895C2
:103840000E94D41B089586E091E00E94D41B089545
:10385000609306017093070180930801909309011A
:103860000895F999FECF92BD81BDF89A992780B548
:103870000895262FF999FECF1FBA92BD81BD20BDB4
:103880000FB6F894FA9AF99A0FBE01960895B7FF09
:103890000C94791A0E94791A821B930B089513E0F5
:1038A000C8EAD3E004C0FE010E949A1A2296CA3ADE
:0838B000D107C9F7F894FFCF1E
:1038B8000000B903800001000000FF5A50696E67DC
:1038C800210072656164576F726446726F6D42754C
:1038D800662829206C696E65206E6F6973653A20C9
:1038E8000042616420727820646174613A20004269
:1038F8006164207278206865616465723A200045C9
:1039080052524F523A20556E6B6E6F776E20636835
:10391800617261637465723A2000444B4E2D0068F1
:10392800747470733A2F2F64636461726B2E6E65C2
:10393800742F202053656E642074686520666F6C50
:103948006C6F77696E6720636F6465733A0A004825
:1039580048565553422D006265666F726520636153
:103968006C6962726174653A2000616674657220E0
:1039780063616C6962726174653A2000444B4E2041
:103988004441534820004848564D4F52534520441F
:103998004153482000485454505320434F4C4F4EF5
:1039A80020534C41534820534C41534820444344EE
:1039B80041524B20444F54204E4554202020205340
:1039C800454E4420434F4445530000000000701109
:1039D8003A16BC0F810FA20FD40F000000004C193B
:0A39E8003A16CE18E718D9182A196C
:00000001FF
